******************************************************************************
                  TI ARM Linker PC v20.2.1                     
******************************************************************************
>> Linked Wed Oct 21 11:03:36 2020

OUTPUT FILE NAME:   <Jacki.out>
ENTRY POINT SYMBOL: "_c_int00_noargs"  address: 000007d5


MEMORY CONFIGURATION

         name            origin    length      used     unused   attr    fill
----------------------  --------  ---------  --------  --------  ----  --------
  MAIN                  00000000   00040000  00000882  0003f77e  R  X
  INFO                  00200000   00004000  00000000  00004000  R  X
  SRAM_CODE             01000000   00010000  00000214  0000fdec  RW X
  SRAM_DATA             20000000   00010000  00000214  0000fdec  RW  


SEGMENT ALLOCATION MAP

run origin  load origin   length   init length attrs members
----------  ----------- ---------- ----------- ----- -------
00000000    00000000    00000888   00000888    r-x
  00000000    00000000    000000e4   000000e4    r-- .intvecs
  000000e4    000000e4    00000766   00000766    r-x .text
  00000850    00000850    00000038   00000038    r-- .cinit
20000000    20000000    00000014   00000000    rw-
  20000000    20000000    00000010   00000000    rw- .data
  20000010    20000010    00000004   00000000    rw- .bss
2000fe00    2000fe00    00000200   00000000    rw-
  2000fe00    2000fe00    00000200   00000000    rw- .stack


SECTION ALLOCATION MAP

 output                                  attributes/
section   page    origin      length       input sections
--------  ----  ----------  ----------   ----------------
.intvecs   0    00000000    000000e4     
                  00000000    000000e4     startup_msp432p401r_ccs.obj (.intvecs:retain)

.text      0    000000e4    00000766     
                  000000e4    0000032c     system_msp432p401r.obj (.text)
                  00000410    000001d4     TA3InputCapture.obj (.text)
                  000005e4    000000a8     TimerA1.obj (.text)
                  0000068c    0000009c     rtsv7M4_T_le_v4SPD16_eabi.lib : memcpy_t2.asm.obj (.text)
                  00000728    00000068                                   : copy_decompress_lzss.c.obj (.text:decompress:lzss:__TI_decompress_lzss)
                  00000790    00000044                                   : autoinit.c.obj (.text:__TI_auto_init_nobinit_nopinit:__TI_auto_init_nobinit_nopinit)
                  000007d4    00000034                                   : boot_cortex_m.c.obj (.text:_c_int00_noargs:_c_int00_noargs)
                  00000808    0000001c                                   : copy_zero_init.c.obj (.text:decompress:ZI:__TI_zero_init_nomemset:__TI_zero_init_nomemset)
                  00000824    0000000e                                   : copy_decompress_none.c.obj (.text:decompress:none:__TI_decompress_none)
                  00000832    0000000e     startup_msp432p401r_ccs.obj (.text)
                  00000840    00000004     rtsv7M4_T_le_v4SPD16_eabi.lib : pre_init.c.obj (.text:_system_pre_init)
                  00000844    00000004                                   : exit.c.obj (.text:abort:abort)
                  00000848    00000002     Jackimain.obj (.text)

.cinit     0    00000850    00000038     
                  00000850    0000000f     (.cinit..data.load) [load image, compression = lzss]
                  0000085f    00000001     --HOLE-- [fill = 0]
                  00000860    0000000c     (__TI_handler_table)
                  0000086c    00000004     --HOLE-- [fill = 0]
                  00000870    00000008     (.cinit..bss.load) [load image, compression = zero_init]
                  00000878    00000010     (__TI_cinit_table)

.init_array 
*          0    00000000    00000000     UNINITIALIZED

.binit     0    00000000    00000000     

.data      0    20000000    00000010     UNINITIALIZED
                  20000000    0000000c     TA3InputCapture.obj (.data)
                  2000000c    00000004     system_msp432p401r.obj (.data)

.bss       0    20000010    00000004     UNINITIALIZED
                  20000010    00000004     (.common:TimerA1Task)

.stack     0    2000fe00    00000200     UNINITIALIZED
                  2000fe00    00000004     rtsv7M4_T_le_v4SPD16_eabi.lib : boot_cortex_m.c.obj (.stack)
                  2000fe04    000001fc     --HOLE--

__llvm_prf_cnts 
*          0    20000000    00000000     UNINITIALIZED

MODULE SUMMARY

       Module                        code   ro data   rw data
       ------                        ----   -------   -------
    ..\
       TA3InputCapture.obj           468    0         24     
       TimerA1.obj                   168    0         8      
    +--+-----------------------------+------+---------+---------+
       Total:                        636    0         32     
                                                             
    .\
       system_msp432p401r.obj        812    0         8      
       startup_msp432p401r_ccs.obj   14     228       0      
       Jackimain.obj                 2      0         0      
    +--+-----------------------------+------+---------+---------+
       Total:                        828    228       8      
                                                             
    C:\ti\ccs1010\ccs\tools\compiler\ti-cgt-arm_20.2.1.LTS\lib\rtsv7M4_T_le_v4SPD16_eabi.lib
       memcpy_t2.asm.obj             156    0         0      
       copy_decompress_lzss.c.obj    104    0         0      
       autoinit.c.obj                68     0         0      
       boot_cortex_m.c.obj           52     0         0      
       copy_zero_init.c.obj          28     0         0      
       copy_decompress_none.c.obj    14     0         0      
       exit.c.obj                    4      0         0      
       pre_init.c.obj                4      0         0      
    +--+-----------------------------+------+---------+---------+
       Total:                        430    0         0      
                                                             
       Stack:                        0      0         1024   
       Linker Generated:             0      51        0      
    +--+-----------------------------+------+---------+---------+
       Grand Total:                  1894   279       1064   


LINKER GENERATED COPY TABLES

__TI_cinit_table @ 00000878 records: 2, size/record: 8, table size: 16
	.data: load addr=00000850, load size=0000000f bytes, run addr=20000000, run size=00000010 bytes, compression=lzss
	.bss: load addr=00000870, load size=00000008 bytes, run addr=20000010, run size=00000004 bytes, compression=zero_init


LINKER GENERATED HANDLER TABLE

__TI_handler_table @ 00000860 records: 3, size/record: 4, table size: 12
	index: 0, handler: __TI_decompress_lzss
	index: 1, handler: __TI_decompress_none
	index: 2, handler: __TI_zero_init


GLOBAL SYMBOLS: SORTED ALPHABETICALLY BY Name 

address   name                          
-------   ----                          
0000083f  ADC14_IRQHandler              
0000083f  AES256_IRQHandler             
0000083f  BusFault_Handler              
00000845  C$$EXIT                       
0000083f  COMP_E0_IRQHandler            
0000083f  COMP_E1_IRQHandler            
0000083f  CS_IRQHandler                 
20000000  CaptureTask0                  
20000004  CaptureTask1                  
20000008  CaptureTask2                  
0000083f  DMA_ERR_IRQHandler            
0000083f  DMA_INT0_IRQHandler           
0000083f  DMA_INT1_IRQHandler           
0000083f  DMA_INT2_IRQHandler           
0000083f  DMA_INT3_IRQHandler           
0000083f  DebugMon_Handler              
0000083f  Default_Handler               
0000083f  EUSCIA0_IRQHandler            
0000083f  EUSCIA1_IRQHandler            
0000083f  EUSCIA2_IRQHandler            
0000083f  EUSCIA3_IRQHandler            
0000083f  EUSCIB0_IRQHandler            
0000083f  EUSCIB1_IRQHandler            
0000083f  EUSCIB2_IRQHandler            
0000083f  EUSCIB3_IRQHandler            
0000083f  FLCTL_IRQHandler              
0000083f  FPU_IRQHandler                
0000083f  HardFault_Handler             
0000083f  MemManage_Handler             
0000083f  NMI_Handler                   
0000083f  PCM_IRQHandler                
0000083f  PORT1_IRQHandler              
0000083f  PORT2_IRQHandler              
0000083f  PORT3_IRQHandler              
0000083f  PORT4_IRQHandler              
0000083f  PORT5_IRQHandler              
0000083f  PORT6_IRQHandler              
0000083f  PSS_IRQHandler                
0000083f  PendSV_Handler                
0000083f  RTC_C_IRQHandler              
00000833  Reset_Handler                 
0000083f  SVC_Handler                   
0000083f  SysTick_Handler               
2000000c  SystemCoreClock               
000000e5  SystemCoreClockUpdate         
00000359  SystemInit                    
0000083f  T32_INT1_IRQHandler           
0000083f  T32_INT2_IRQHandler           
0000083f  T32_INTC_IRQHandler           
0000083f  TA0_0_IRQHandler              
0000083f  TA0_N_IRQHandler              
00000657  TA1_0_IRQHandler              
00000657  TA1_0_IRQHandler              
0000083f  TA1_N_IRQHandler              
0000083f  TA2_0_IRQHandler              
0000083f  TA2_N_IRQHandler              
0000049d  TA3_0_IRQHandler              
0000049d  TA3_0_IRQHandler              
000004b7  TA3_N_IRQHandler              
000004b7  TA3_N_IRQHandler              
20000010  TimerA1Task                   
000005e5  TimerA1_Init                  
00000643  TimerA1_Stop                  
0000041d  TimerA3Capture_Init01         
000004f7  TimerA3Capture_Init02         
0000083f  UsageFault_Handler            
4000480c  WDTCTL_SYM                    
0000083f  WDT_A_IRQHandler              
20010000  __STACK_END                   
00000200  __STACK_SIZE                  
00000878  __TI_CINIT_Base               
00000888  __TI_CINIT_Limit              
00000860  __TI_Handler_Table_Base       
0000086c  __TI_Handler_Table_Limit      
00000791  __TI_auto_init_nobinit_nopinit
00000729  __TI_decompress_lzss          
00000825  __TI_decompress_none          
ffffffff  __TI_pprof_out_hndl           
ffffffff  __TI_prof_data_size           
ffffffff  __TI_prof_data_start          
00000000  __TI_static_base__            
00000809  __TI_zero_init_nomemset       
0000068d  __aeabi_memcpy                
0000068d  __aeabi_memcpy4               
0000068d  __aeabi_memcpy8               
ffffffff  __binit__                     
ffffffff  __c_args__                    
UNDEFED   __mpu_init                    
2000fe00  __stack                       
20000000  __start___llvm_prf_cnts       
20000000  __stop___llvm_prf_cnts        
000007d5  _c_int00_noargs               
UNDEFED   _system_post_cinit            
00000841  _system_pre_init              
00000845  abort                         
ffffffff  binit                         
00000000  interruptVectors              
00000849  main                          
0000068d  memcpy                        
00000411  ta3dummy                      


GLOBAL SYMBOLS: SORTED BY Symbol Address 

address   name                          
-------   ----                          
00000000  __TI_static_base__            
00000000  interruptVectors              
000000e5  SystemCoreClockUpdate         
00000200  __STACK_SIZE                  
00000359  SystemInit                    
00000411  ta3dummy                      
0000041d  TimerA3Capture_Init01         
0000049d  TA3_0_IRQHandler              
0000049d  TA3_0_IRQHandler              
000004b7  TA3_N_IRQHandler              
000004b7  TA3_N_IRQHandler              
000004f7  TimerA3Capture_Init02         
000005e5  TimerA1_Init                  
00000643  TimerA1_Stop                  
00000657  TA1_0_IRQHandler              
00000657  TA1_0_IRQHandler              
0000068d  __aeabi_memcpy                
0000068d  __aeabi_memcpy4               
0000068d  __aeabi_memcpy8               
0000068d  memcpy                        
00000729  __TI_decompress_lzss          
00000791  __TI_auto_init_nobinit_nopinit
000007d5  _c_int00_noargs               
00000809  __TI_zero_init_nomemset       
00000825  __TI_decompress_none          
00000833  Reset_Handler                 
0000083f  ADC14_IRQHandler              
0000083f  AES256_IRQHandler             
0000083f  BusFault_Handler              
0000083f  COMP_E0_IRQHandler            
0000083f  COMP_E1_IRQHandler            
0000083f  CS_IRQHandler                 
0000083f  DMA_ERR_IRQHandler            
0000083f  DMA_INT0_IRQHandler           
0000083f  DMA_INT1_IRQHandler           
0000083f  DMA_INT2_IRQHandler           
0000083f  DMA_INT3_IRQHandler           
0000083f  DebugMon_Handler              
0000083f  Default_Handler               
0000083f  EUSCIA0_IRQHandler            
0000083f  EUSCIA1_IRQHandler            
0000083f  EUSCIA2_IRQHandler            
0000083f  EUSCIA3_IRQHandler            
0000083f  EUSCIB0_IRQHandler            
0000083f  EUSCIB1_IRQHandler            
0000083f  EUSCIB2_IRQHandler            
0000083f  EUSCIB3_IRQHandler            
0000083f  FLCTL_IRQHandler              
0000083f  FPU_IRQHandler                
0000083f  HardFault_Handler             
0000083f  MemManage_Handler             
0000083f  NMI_Handler                   
0000083f  PCM_IRQHandler                
0000083f  PORT1_IRQHandler              
0000083f  PORT2_IRQHandler              
0000083f  PORT3_IRQHandler              
0000083f  PORT4_IRQHandler              
0000083f  PORT5_IRQHandler              
0000083f  PORT6_IRQHandler              
0000083f  PSS_IRQHandler                
0000083f  PendSV_Handler                
0000083f  RTC_C_IRQHandler              
0000083f  SVC_Handler                   
0000083f  SysTick_Handler               
0000083f  T32_INT1_IRQHandler           
0000083f  T32_INT2_IRQHandler           
0000083f  T32_INTC_IRQHandler           
0000083f  TA0_0_IRQHandler              
0000083f  TA0_N_IRQHandler              
0000083f  TA1_N_IRQHandler              
0000083f  TA2_0_IRQHandler              
0000083f  TA2_N_IRQHandler              
0000083f  UsageFault_Handler            
0000083f  WDT_A_IRQHandler              
00000841  _system_pre_init              
00000845  C$$EXIT                       
00000845  abort                         
00000849  main                          
00000860  __TI_Handler_Table_Base       
0000086c  __TI_Handler_Table_Limit      
00000878  __TI_CINIT_Base               
00000888  __TI_CINIT_Limit              
20000000  CaptureTask0                  
20000000  __start___llvm_prf_cnts       
20000000  __stop___llvm_prf_cnts        
20000004  CaptureTask1                  
20000008  CaptureTask2                  
2000000c  SystemCoreClock               
20000010  TimerA1Task                   
2000fe00  __stack                       
20010000  __STACK_END                   
4000480c  WDTCTL_SYM                    
ffffffff  __TI_pprof_out_hndl           
ffffffff  __TI_prof_data_size           
ffffffff  __TI_prof_data_start          
ffffffff  __binit__                     
ffffffff  __c_args__                    
ffffffff  binit                         
UNDEFED   __mpu_init                    
UNDEFED   _system_post_cinit            

[100 symbols]
