******************************************************************************
                  TI ARM Linker PC v20.2.1                     
******************************************************************************
>> Linked Wed Oct 21 11:04:57 2020

OUTPUT FILE NAME:   <RobotArm.out>
ENTRY POINT SYMBOL: "_c_int00_noargs"  address: 000038bd


MEMORY CONFIGURATION

         name            origin    length      used     unused   attr    fill
----------------------  --------  ---------  --------  --------  ----  --------
  MAIN                  00000000   00040000  00003c90  0003c370  R  X
  INFO                  00200000   00004000  00000000  00004000  R  X
  SRAM_CODE             01000000   00010000  0000069e  0000f962  RW X
  SRAM_DATA             20000000   00010000  0000069e  0000f962  RW  


SEGMENT ALLOCATION MAP

run origin  load origin   length   init length attrs members
----------  ----------- ---------- ----------- ----- -------
00000000    00000000    00003c90   00003c90    r-x
  00000000    00000000    000000e4   000000e4    r-- .intvecs
  000000e4    000000e4    00003888   00003888    r-x .text
  0000396c    0000396c    000002d4   000002d4    r-- .const
  00003c40    00003c40    00000050   00000050    r-- .cinit
20000000    20000000    000004a0   00000000    rw-
  20000000    20000000    00000456   00000000    rw- .bss
  20000458    20000458    00000048   00000000    rw- .data
2000fe00    2000fe00    00000200   00000000    rw-
  2000fe00    2000fe00    00000200   00000000    rw- .stack


SECTION ALLOCATION MAP

 output                                  attributes/
section   page    origin      length       input sections
--------  ----  ----------  ----------   ----------------
.intvecs   0    00000000    000000e4     
                  00000000    000000e4     startup_msp432p401r_ccs.obj (.intvecs:retain)

.text      0    000000e4    00003888     
                  000000e4    00001340     SSD1306.obj (.text)
                  00001424    000012a0     RobotArmmain.obj (.text)
                  000026c4    00000420     PWM.obj (.text)
                  00002ae4    0000032c     system_msp432p401r.obj (.text)
                  00002e10    00000284     ADC14.obj (.text)
                  00003094    000001e0     Clock.obj (.text)
                  00003274    00000194     Motor.obj (.text)
                  00003408    0000013c     Tachometer.obj (.text)
                  00003544    000000f4     LaunchPad.obj (.text)
                  00003638    0000009c     rtsv7M4_T_le_v4SPD16_eabi.lib : memcpy_t2.asm.obj (.text)
                  000036d4    00000080     Bump.obj (.text)
                  00003754    0000007a     rtsv7M4_T_le_v4SPD16_eabi.lib : memset_t2.asm.obj (.text)
                  000037ce    00000068                                   : copy_decompress_lzss.c.obj (.text:decompress:lzss:__TI_decompress_lzss)
                  00003836    00000002     --HOLE-- [fill = 0]
                  00003838    00000044                                   : autoinit.c.obj (.text:__TI_auto_init_nobinit_nopinit:__TI_auto_init_nobinit_nopinit)
                  0000387c    00000040     SysTickInts.obj (.text)
                  000038bc    00000034     rtsv7M4_T_le_v4SPD16_eabi.lib : boot_cortex_m.c.obj (.text:_c_int00_noargs:_c_int00_noargs)
                  000038f0    00000028     TA3InputCapture.obj (.text)
                  00003918    00000024     CortexM.obj (.text)
                  0000393c    0000000e     rtsv7M4_T_le_v4SPD16_eabi.lib : copy_decompress_none.c.obj (.text:decompress:none:__TI_decompress_none)
                  0000394a    0000000e     startup_msp432p401r_ccs.obj (.text)
                  00003958    0000000c     rtsv7M4_T_le_v4SPD16_eabi.lib : copy_zero_init.c.obj (.text:decompress:ZI:__TI_zero_init)
                  00003964    00000004                                   : pre_init.c.obj (.text:_system_pre_init)
                  00003968    00000004                                   : exit.c.obj (.text:abort:abort)

.const     0    0000396c    000002d4     
                  0000396c    000001e0     SSD1306.obj (.const:ASCII)
                  00003b4c    0000003c     RobotArmmain.obj (.const:GRIPDUTY)
                  00003b88    0000003c     RobotArmmain.obj (.const:HEIGHTDUTY)
                  00003bc4    0000003c     RobotArmmain.obj (.const:TILTDUTY)
                  00003c00    00000008     SSD1306.obj (.const:.string:postmask)
                  00003c08    00000008     SSD1306.obj (.const:.string:premask)
                  00003c10    00000006     SSD1306.obj (.const:.string:init5)
                  00003c16    00000005     SSD1306.obj (.const:.string:dlist1)
                  00003c1b    00000004     SSD1306.obj (.const:.string:init1)
                  00003c1f    00000004     SSD1306.obj (.const:.string:init2)
                  00003c23    00000004     SSD1306.obj (.const:.string:init3)
                  00003c27    00000003     SSD1306.obj (.const:.string:init4b)
                  00003c2a    00000003     SSD1306.obj (.const:.string:scrollList1b)
                  00003c2d    00000003     SSD1306.obj (.const:.string:scrollList2b)
                  00003c30    00000002     SSD1306.obj (.const:.string:scrollList1a)
                  00003c32    00000002     SSD1306.obj (.const:.string:scrollList2a)
                  00003c34    00000002     SSD1306.obj (.const:.string:scrollList3a)
                  00003c36    00000002     SSD1306.obj (.const:.string:scrollList3b)
                  00003c38    00000002     SSD1306.obj (.const:.string:scrollList3c)
                  00003c3a    00000002     SSD1306.obj (.const:.string:scrollList4a)
                  00003c3c    00000002     SSD1306.obj (.const:.string:scrollList4b)
                  00003c3e    00000002     SSD1306.obj (.const:.string:scrollList4c)

.cinit     0    00003c40    00000050     
                  00003c40    0000002b     (.cinit..data.load) [load image, compression = lzss]
                  00003c6b    00000001     --HOLE-- [fill = 0]
                  00003c6c    0000000c     (__TI_handler_table)
                  00003c78    00000008     (.cinit..bss.load) [load image, compression = zero_init]
                  00003c80    00000010     (__TI_cinit_table)

.init_array 
*          0    00000000    00000000     UNINITIALIZED

.binit     0    00000000    00000000     

.bss       0    20000000    00000456     UNINITIALIZED
                  20000000    00000400     (.common:buffer)
                  20000400    00000014     (.common:LeftTach)
                  20000414    00000014     (.common:RightTach)
                  20000428    00000004     (.common:GripADC)
                  2000042c    00000004     (.common:HeightADC)
                  20000430    00000004     (.common:LeftSteps)
                  20000434    00000004     (.common:RightSteps)
                  20000438    00000004     (.common:TiltADC)
                  2000043c    00000004     (.common:rotation)
                  20000440    00000004     (.common:vccstate)
                  20000444    00000002     (.common:ActualL)
                  20000446    00000002     (.common:ActualR)
                  20000448    00000002     (.common:StartX)
                  2000044a    00000002     (.common:StartY)
                  2000044c    00000002     (.common:Tachometer_FirstLeftTime)
                  2000044e    00000002     (.common:Tachometer_FirstRightTime)
                  20000450    00000002     (.common:Tachometer_SecondLeftTime)
                  20000452    00000002     (.common:Tachometer_SecondRightTime)
                  20000454    00000001     (.common:LeftDir)
                  20000455    00000001     (.common:RightDir)

.data      0    20000458    00000048     UNINITIALIZED
                  20000458    0000001b     RobotArmmain.obj (.data)
                  20000473    00000001     --HOLE--
                  20000474    00000018     Clock.obj (.data)
                  2000048c    0000000a     Tachometer.obj (.data)
                  20000496    00000004     SSD1306.obj (.data)
                  2000049a    00000002     --HOLE--
                  2000049c    00000004     system_msp432p401r.obj (.data)

.stack     0    2000fe00    00000200     UNINITIALIZED
                  2000fe00    00000004     rtsv7M4_T_le_v4SPD16_eabi.lib : boot_cortex_m.c.obj (.stack)
                  2000fe04    000001fc     --HOLE--

__llvm_prf_cnts 
*          0    20000000    00000000     UNINITIALIZED

MODULE SUMMARY

       Module                        code    ro data   rw data
       ------                        ----    -------   -------
    .\
       SSD1306.obj                   4928    544       2080   
       RobotArmmain.obj              4768    180       186    
       PWM.obj                       1056    0         0      
       system_msp432p401r.obj        812     0         8      
       ADC14.obj                     644     0         0      
       Clock.obj                     480     0         48     
       Motor.obj                     404     0         0      
       Tachometer.obj                316     0         36     
       LaunchPad.obj                 244     0         0      
       startup_msp432p401r_ccs.obj   14      228       0      
       Bump.obj                      128     0         0      
       SysTickInts.obj               64      0         0      
       TA3InputCapture.obj           40      0         0      
       CortexM.obj                   36      0         0      
    +--+-----------------------------+-------+---------+---------+
       Total:                        13934   952       2358   
                                                              
    C:\ti\ccs1010\ccs\tools\compiler\ti-cgt-arm_20.2.1.LTS\lib\rtsv7M4_T_le_v4SPD16_eabi.lib
       memcpy_t2.asm.obj             156     0         0      
       memset_t2.asm.obj             122     0         0      
       copy_decompress_lzss.c.obj    104     0         0      
       autoinit.c.obj                68      0         0      
       boot_cortex_m.c.obj           52      0         0      
       copy_decompress_none.c.obj    14      0         0      
       copy_zero_init.c.obj          12      0         0      
       exit.c.obj                    4       0         0      
       pre_init.c.obj                4       0         0      
    +--+-----------------------------+-------+---------+---------+
       Total:                        536     0         0      
                                                              
       Stack:                        0       0         1024   
       Linker Generated:             0       79        0      
    +--+-----------------------------+-------+---------+---------+
       Grand Total:                  14470   1031      3382   


LINKER GENERATED COPY TABLES

__TI_cinit_table @ 00003c80 records: 2, size/record: 8, table size: 16
	.data: load addr=00003c40, load size=0000002b bytes, run addr=20000458, run size=00000048 bytes, compression=lzss
	.bss: load addr=00003c78, load size=00000008 bytes, run addr=20000000, run size=00000456 bytes, compression=zero_init


LINKER GENERATED HANDLER TABLE

__TI_handler_table @ 00003c6c records: 3, size/record: 4, table size: 12
	index: 0, handler: __TI_decompress_lzss
	index: 1, handler: __TI_decompress_none
	index: 2, handler: __TI_zero_init


GLOBAL SYMBOLS: SORTED ALPHABETICALLY BY Name 

address   name                          
-------   ----                          
00002fbf  ADC0_InitSWTriggerCh12        
00002f0d  ADC0_InitSWTriggerCh14        
00002f13  ADC0_InitSWTriggerCh17_14_16  
00002fc5  ADC0_InitSWTriggerCh19        
00002f23  ADC0_InitSWTriggerCh21_22_23  
00003035  ADC0_InitSWTriggerCh23        
00002e11  ADC0_InitSWTriggerCh6         
00002e81  ADC0_InitSWTriggerCh67        
00003957  ADC14_IRQHandler              
00002fc1  ADC_In12                      
00002f0f  ADC_In14                      
00002f15  ADC_In17_14_16                
00003015  ADC_In19                      
00002f7f  ADC_In21_22_23                
00003037  ADC_In23                      
00002e61  ADC_In6                       
00002ed7  ADC_In67                      
00003957  AES256_IRQHandler             
20000444  ActualL                       
20000446  ActualR                       
000036d5  Bump_Init                     
00003709  Bump_Read                     
00003957  BusFault_Handler              
00003969  C$$EXIT                       
00003957  COMP_E0_IRQHandler            
00003957  COMP_E1_IRQHandler            
2000047c  CPMwait                       
00003957  CS_IRQHandler                 
20000474  ClockFrequency                
000031e9  Clock_Delay1ms                
000031bf  Clock_Delay1us                
000031ab  Clock_GetFreq                 
00003095  Clock_Init48MHz               
20000488  Crystalstable                 
20000496  CurrentX                      
20000498  CurrentY                      
00003957  DMA_ERR_IRQHandler            
00003957  DMA_INT0_IRQHandler           
00003957  DMA_INT1_IRQHandler           
00003957  DMA_INT2_IRQHandler           
00003957  DMA_INT3_IRQHandler           
00003957  DebugMon_Handler              
00003957  Default_Handler               
2000046a  DesiredL                      
2000046c  DesiredR                      
00003919  DisableInterrupts             
00003957  EUSCIA0_IRQHandler            
00003957  EUSCIA1_IRQHandler            
00003957  EUSCIA2_IRQHandler            
00003957  EUSCIA3_IRQHandler            
00003957  EUSCIB0_IRQHandler            
00003957  EUSCIB1_IRQHandler            
00003957  EUSCIB2_IRQHandler            
00003957  EUSCIB3_IRQHandler            
0000391f  EnableInterrupts              
0000392f  EndCritical                   
00003957  FLCTL_IRQHandler              
00003957  FPU_IRQHandler                
00003b4c  GRIPDUTY                      
20000428  GripADC                       
20000460  GripIndex                     
00003b88  HEIGHTDUTY                    
00003957  HardFault_Handler             
2000042c  HeightADC                     
20000458  HeightIndex                   
20000484  IFlags                        
00003545  LaunchPad_Init                
000035b5  LaunchPad_Input               
000035cf  LaunchPad_LED                 
000035ed  LaunchPad_Output              
20000454  LeftDir                       
2000046e  LeftDuty                      
20000430  LeftSteps                     
20000400  LeftTach                      
00003957  MemManage_Handler             
000033ad  Motor_Backward                
000032e5  Motor_Forward                 
00003275  Motor_Init                    
00003367  Motor_Left                    
00003321  Motor_Right                   
000032c1  Motor_Stop                    
00003957  NMI_Handler                   
00003957  PCM_IRQHandler                
00003957  PORT1_IRQHandler              
00003957  PORT2_IRQHandler              
00003957  PORT3_IRQHandler              
00003957  PORT4_IRQHandler              
00003957  PORT5_IRQHandler              
00003957  PORT6_IRQHandler              
00003957  PSS_IRQHandler                
000027af  PWM_Duty1                     
000027cf  PWM_Duty2                     
00002873  PWM_Duty3                     
00002893  PWM_Duty4                     
000026c5  PWM_Init1                     
0000272b  PWM_Init12                    
000027ef  PWM_Init34                    
000029db  PWM_RobotArmDuty0             
00002a01  PWM_RobotArmDuty1             
00002a27  PWM_RobotArmDuty2             
000029fb  PWM_RobotArmGetDuty0          
00002a21  PWM_RobotArmGetDuty1          
00002a47  PWM_RobotArmGetDuty2          
000028b3  PWM_RobotArmInit              
00003957  PendSV_Handler                
20000480  Postwait                      
20000478  Prewait                       
00003957  RTC_C_IRQHandler              
0000394b  Reset_Handler                 
20000455  RightDir                      
20000470  RightDuty                     
20000434  RightSteps                    
20000414  RightTach                     
00000501  SSD1306_Clear                 
000004c1  SSD1306_ClearBuffer           
00000f1d  SSD1306_Dim                   
00000dd7  SSD1306_DisplayBuffer         
000003c3  SSD1306_DrawChar              
00000799  SSD1306_DrawFastHLine         
000009bd  SSD1306_DrawFastVLine         
00000555  SSD1306_DrawFullImage         
00000255  SSD1306_DrawPixel             
00000471  SSD1306_DrawString            
00000dd3  SSD1306_GetBuffer             
00000cd5  SSD1306_GetPixel              
0000014f  SSD1306_Init                  
00000f07  SSD1306_InvertDisplay         
00000fc9  SSD1306_OutChar               
000012cb  SSD1306_OutHex7               
00001105  SSD1306_OutSDec               
000011dd  SSD1306_OutSFix1              
000010ef  SSD1306_OutString             
000010f9  SSD1306_OutUDec               
00001329  SSD1306_OutUDec16             
000013c5  SSD1306_OutUDec2              
00001129  SSD1306_OutUFix1              
00001301  SSD1306_OutUHex7              
000005b9  SSD1306_PrintBMP              
00000f4f  SSD1306_SetCursor             
000008ab  SSD1306_drawFastHLineInternal 
00000ad5  SSD1306_drawFastVLineInternal 
00000ebd  SSD1306_startscrolldiagleft   
00000e79  SSD1306_startscrolldiagright  
00000e43  SSD1306_startscrollleft       
00000e11  SSD1306_startscrollright      
00000efd  SSD1306_stopscroll            
00003957  SVC_Handler                   
00003925  StartCritical                 
20000448  StartX                        
2000044a  StartY                        
000014eb  SysTick_Handler               
000014eb  SysTick_Handler               
0000387d  SysTick_Init                  
2000049c  SystemCoreClock               
00002ae5  SystemCoreClockUpdate         
00002d59  SystemInit                    
00003957  T32_INT1_IRQHandler           
00003957  T32_INT2_IRQHandler           
00003957  T32_INTC_IRQHandler           
00003957  TA0_0_IRQHandler              
00003957  TA0_N_IRQHandler              
00003957  TA1_0_IRQHandler              
00003957  TA1_N_IRQHandler              
00003957  TA2_0_IRQHandler              
00003957  TA2_N_IRQHandler              
00003909  TA3_0_IRQHandler              
00003909  TA3_0_IRQHandler              
0000390b  TA3_N_IRQHandler              
0000390b  TA3_N_IRQHandler              
00003bc4  TILTDUTY                      
2000044c  Tachometer_FirstLeftTime      
2000044e  Tachometer_FirstRightTime     
000034bf  Tachometer_Get                
00003495  Tachometer_Init               
20000495  Tachometer_LeftDir            
20000490  Tachometer_LeftSteps          
20000494  Tachometer_RightDir           
2000048c  Tachometer_RightSteps         
20000450  Tachometer_SecondLeftTime     
20000452  Tachometer_SecondRightTime    
20000438  TiltADC                       
2000045c  TiltIndex                     
20000464  Time                          
000038fd  TimerA3Capture_Init01         
0000390d  TimerA3Capture_Init02         
00003957  UsageFault_Handler            
4000480c  WDTCTL_SYM                    
00003957  WDT_A_IRQHandler              
00003937  WaitForInterrupt              
20010000  __STACK_END                   
00000200  __STACK_SIZE                  
00003c80  __TI_CINIT_Base               
00003c90  __TI_CINIT_Limit              
00003c6c  __TI_Handler_Table_Base       
00003c78  __TI_Handler_Table_Limit      
00003839  __TI_auto_init_nobinit_nopinit
000037cf  __TI_decompress_lzss          
0000393d  __TI_decompress_none          
ffffffff  __TI_pprof_out_hndl           
ffffffff  __TI_prof_data_size           
ffffffff  __TI_prof_data_start          
00000000  __TI_static_base__            
00003959  __TI_zero_init                
00003755  __aeabi_memclr                
00003755  __aeabi_memclr4               
00003755  __aeabi_memclr8               
00003639  __aeabi_memcpy                
00003639  __aeabi_memcpy4               
00003639  __aeabi_memcpy8               
00003757  __aeabi_memset                
00003757  __aeabi_memset4               
00003757  __aeabi_memset8               
ffffffff  __binit__                     
ffffffff  __c_args__                    
UNDEFED   __mpu_init                    
2000fe00  __stack                       
20000000  __start___llvm_prf_cnts       
20000000  __stop___llvm_prf_cnts        
000038bd  _c_int00_noargs               
UNDEFED   _system_post_cinit            
00003965  _system_pre_init              
00003969  abort                         
000014a9  avg                           
ffffffff  binit                         
20000000  buffer                        
20000468  currentMode                   
000031b1  delay                         
0000147d  getactualgrip                 
00001425  getactualheight               
00001451  getactualtilt                 
00000000  interruptVectors              
000017ad  main                          
00003639  memcpy                        
0000375d  memset                        
2000043c  rotation                      
000000f1  ssd1306_Testcommandwrite      
00000107  ssd1306_command               
00000117  ssd1306_command1              
00000127  ssd1306_commandList           
000038f1  ta3dummy                      
0000344f  tachometerLeftInt             
00003409  tachometerRightInt            
000016f1  updatescreen                  
20000440  vccstate                      


GLOBAL SYMBOLS: SORTED BY Symbol Address 

address   name                          
-------   ----                          
00000000  __TI_static_base__            
00000000  interruptVectors              
000000f1  ssd1306_Testcommandwrite      
00000107  ssd1306_command               
00000117  ssd1306_command1              
00000127  ssd1306_commandList           
0000014f  SSD1306_Init                  
00000200  __STACK_SIZE                  
00000255  SSD1306_DrawPixel             
000003c3  SSD1306_DrawChar              
00000471  SSD1306_DrawString            
000004c1  SSD1306_ClearBuffer           
00000501  SSD1306_Clear                 
00000555  SSD1306_DrawFullImage         
000005b9  SSD1306_PrintBMP              
00000799  SSD1306_DrawFastHLine         
000008ab  SSD1306_drawFastHLineInternal 
000009bd  SSD1306_DrawFastVLine         
00000ad5  SSD1306_drawFastVLineInternal 
00000cd5  SSD1306_GetPixel              
00000dd3  SSD1306_GetBuffer             
00000dd7  SSD1306_DisplayBuffer         
00000e11  SSD1306_startscrollright      
00000e43  SSD1306_startscrollleft       
00000e79  SSD1306_startscrolldiagright  
00000ebd  SSD1306_startscrolldiagleft   
00000efd  SSD1306_stopscroll            
00000f07  SSD1306_InvertDisplay         
00000f1d  SSD1306_Dim                   
00000f4f  SSD1306_SetCursor             
00000fc9  SSD1306_OutChar               
000010ef  SSD1306_OutString             
000010f9  SSD1306_OutUDec               
00001105  SSD1306_OutSDec               
00001129  SSD1306_OutUFix1              
000011dd  SSD1306_OutSFix1              
000012cb  SSD1306_OutHex7               
00001301  SSD1306_OutUHex7              
00001329  SSD1306_OutUDec16             
000013c5  SSD1306_OutUDec2              
00001425  getactualheight               
00001451  getactualtilt                 
0000147d  getactualgrip                 
000014a9  avg                           
000014eb  SysTick_Handler               
000014eb  SysTick_Handler               
000016f1  updatescreen                  
000017ad  main                          
000026c5  PWM_Init1                     
0000272b  PWM_Init12                    
000027af  PWM_Duty1                     
000027cf  PWM_Duty2                     
000027ef  PWM_Init34                    
00002873  PWM_Duty3                     
00002893  PWM_Duty4                     
000028b3  PWM_RobotArmInit              
000029db  PWM_RobotArmDuty0             
000029fb  PWM_RobotArmGetDuty0          
00002a01  PWM_RobotArmDuty1             
00002a21  PWM_RobotArmGetDuty1          
00002a27  PWM_RobotArmDuty2             
00002a47  PWM_RobotArmGetDuty2          
00002ae5  SystemCoreClockUpdate         
00002d59  SystemInit                    
00002e11  ADC0_InitSWTriggerCh6         
00002e61  ADC_In6                       
00002e81  ADC0_InitSWTriggerCh67        
00002ed7  ADC_In67                      
00002f0d  ADC0_InitSWTriggerCh14        
00002f0f  ADC_In14                      
00002f13  ADC0_InitSWTriggerCh17_14_16  
00002f15  ADC_In17_14_16                
00002f23  ADC0_InitSWTriggerCh21_22_23  
00002f7f  ADC_In21_22_23                
00002fbf  ADC0_InitSWTriggerCh12        
00002fc1  ADC_In12                      
00002fc5  ADC0_InitSWTriggerCh19        
00003015  ADC_In19                      
00003035  ADC0_InitSWTriggerCh23        
00003037  ADC_In23                      
00003095  Clock_Init48MHz               
000031ab  Clock_GetFreq                 
000031b1  delay                         
000031bf  Clock_Delay1us                
000031e9  Clock_Delay1ms                
00003275  Motor_Init                    
000032c1  Motor_Stop                    
000032e5  Motor_Forward                 
00003321  Motor_Right                   
00003367  Motor_Left                    
000033ad  Motor_Backward                
00003409  tachometerRightInt            
0000344f  tachometerLeftInt             
00003495  Tachometer_Init               
000034bf  Tachometer_Get                
00003545  LaunchPad_Init                
000035b5  LaunchPad_Input               
000035cf  LaunchPad_LED                 
000035ed  LaunchPad_Output              
00003639  __aeabi_memcpy                
00003639  __aeabi_memcpy4               
00003639  __aeabi_memcpy8               
00003639  memcpy                        
000036d5  Bump_Init                     
00003709  Bump_Read                     
00003755  __aeabi_memclr                
00003755  __aeabi_memclr4               
00003755  __aeabi_memclr8               
00003757  __aeabi_memset                
00003757  __aeabi_memset4               
00003757  __aeabi_memset8               
0000375d  memset                        
000037cf  __TI_decompress_lzss          
00003839  __TI_auto_init_nobinit_nopinit
0000387d  SysTick_Init                  
000038bd  _c_int00_noargs               
000038f1  ta3dummy                      
000038fd  TimerA3Capture_Init01         
00003909  TA3_0_IRQHandler              
00003909  TA3_0_IRQHandler              
0000390b  TA3_N_IRQHandler              
0000390b  TA3_N_IRQHandler              
0000390d  TimerA3Capture_Init02         
00003919  DisableInterrupts             
0000391f  EnableInterrupts              
00003925  StartCritical                 
0000392f  EndCritical                   
00003937  WaitForInterrupt              
0000393d  __TI_decompress_none          
0000394b  Reset_Handler                 
00003957  ADC14_IRQHandler              
00003957  AES256_IRQHandler             
00003957  BusFault_Handler              
00003957  COMP_E0_IRQHandler            
00003957  COMP_E1_IRQHandler            
00003957  CS_IRQHandler                 
00003957  DMA_ERR_IRQHandler            
00003957  DMA_INT0_IRQHandler           
00003957  DMA_INT1_IRQHandler           
00003957  DMA_INT2_IRQHandler           
00003957  DMA_INT3_IRQHandler           
00003957  DebugMon_Handler              
00003957  Default_Handler               
00003957  EUSCIA0_IRQHandler            
00003957  EUSCIA1_IRQHandler            
00003957  EUSCIA2_IRQHandler            
00003957  EUSCIA3_IRQHandler            
00003957  EUSCIB0_IRQHandler            
00003957  EUSCIB1_IRQHandler            
00003957  EUSCIB2_IRQHandler            
00003957  EUSCIB3_IRQHandler            
00003957  FLCTL_IRQHandler              
00003957  FPU_IRQHandler                
00003957  HardFault_Handler             
00003957  MemManage_Handler             
00003957  NMI_Handler                   
00003957  PCM_IRQHandler                
00003957  PORT1_IRQHandler              
00003957  PORT2_IRQHandler              
00003957  PORT3_IRQHandler              
00003957  PORT4_IRQHandler              
00003957  PORT5_IRQHandler              
00003957  PORT6_IRQHandler              
00003957  PSS_IRQHandler                
00003957  PendSV_Handler                
00003957  RTC_C_IRQHandler              
00003957  SVC_Handler                   
00003957  T32_INT1_IRQHandler           
00003957  T32_INT2_IRQHandler           
00003957  T32_INTC_IRQHandler           
00003957  TA0_0_IRQHandler              
00003957  TA0_N_IRQHandler              
00003957  TA1_0_IRQHandler              
00003957  TA1_N_IRQHandler              
00003957  TA2_0_IRQHandler              
00003957  TA2_N_IRQHandler              
00003957  UsageFault_Handler            
00003957  WDT_A_IRQHandler              
00003959  __TI_zero_init                
00003965  _system_pre_init              
00003969  C$$EXIT                       
00003969  abort                         
00003b4c  GRIPDUTY                      
00003b88  HEIGHTDUTY                    
00003bc4  TILTDUTY                      
00003c6c  __TI_Handler_Table_Base       
00003c78  __TI_Handler_Table_Limit      
00003c80  __TI_CINIT_Base               
00003c90  __TI_CINIT_Limit              
20000000  __start___llvm_prf_cnts       
20000000  __stop___llvm_prf_cnts        
20000000  buffer                        
20000400  LeftTach                      
20000414  RightTach                     
20000428  GripADC                       
2000042c  HeightADC                     
20000430  LeftSteps                     
20000434  RightSteps                    
20000438  TiltADC                       
2000043c  rotation                      
20000440  vccstate                      
20000444  ActualL                       
20000446  ActualR                       
20000448  StartX                        
2000044a  StartY                        
2000044c  Tachometer_FirstLeftTime      
2000044e  Tachometer_FirstRightTime     
20000450  Tachometer_SecondLeftTime     
20000452  Tachometer_SecondRightTime    
20000454  LeftDir                       
20000455  RightDir                      
20000458  HeightIndex                   
2000045c  TiltIndex                     
20000460  GripIndex                     
20000464  Time                          
20000468  currentMode                   
2000046a  DesiredL                      
2000046c  DesiredR                      
2000046e  LeftDuty                      
20000470  RightDuty                     
20000474  ClockFrequency                
20000478  Prewait                       
2000047c  CPMwait                       
20000480  Postwait                      
20000484  IFlags                        
20000488  Crystalstable                 
2000048c  Tachometer_RightSteps         
20000490  Tachometer_LeftSteps          
20000494  Tachometer_RightDir           
20000495  Tachometer_LeftDir            
20000496  CurrentX                      
20000498  CurrentY                      
2000049c  SystemCoreClock               
2000fe00  __stack                       
20010000  __STACK_END                   
4000480c  WDTCTL_SYM                    
ffffffff  __TI_pprof_out_hndl           
ffffffff  __TI_prof_data_size           
ffffffff  __TI_prof_data_start          
ffffffff  __binit__                     
ffffffff  __c_args__                    
ffffffff  binit                         
UNDEFED   __mpu_init                    
UNDEFED   _system_post_cinit            

[244 symbols]
