******************************************************************************
                  TI ARM Linker PC v20.2.1                     
******************************************************************************
>> Linked Wed Oct 21 11:04:22 2020

OUTPUT FILE NAME:   <Lab18_UART.out>
ENTRY POINT SYMBOL: "_c_int00_noargs"  address: 00002c79


MEMORY CONFIGURATION

         name            origin    length      used     unused   attr    fill
----------------------  --------  ---------  --------  --------  ----  --------
  MAIN                  00000000   00040000  00002f02  0003d0fe  R  X
  INFO                  00200000   00004000  00000000  00004000  R  X
  SRAM_CODE             01000000   00010000  00000b4e  0000f4b2  RW X
  SRAM_DATA             20000000   00010000  00000b4e  0000f4b2  RW  


SEGMENT ALLOCATION MAP

run origin  load origin   length   init length attrs members
----------  ----------- ---------- ----------- ----- -------
00000000    00000000    00002f08   00002f08    r-x
  00000000    00000000    000000e4   000000e4    r-- .intvecs
  000000e4    000000e4    00002d86   00002d86    r-x .text
  00002e70    00002e70    00000098   00000098    r-- .cinit
20000000    20000000    00000950   00000000    rw-
  20000000    20000000    00000400   00000000    rw- .sysmem
  20000400    20000400    0000033e   00000000    rw- .bss
  20000740    20000740    00000210   00000000    rw- .data
2000fe00    2000fe00    00000200   00000000    rw-
  2000fe00    2000fe00    00000200   00000000    rw- .stack


SECTION ALLOCATION MAP

 output                                  attributes/
section   page    origin      length       input sections
--------  ----  ----------  ----------   ----------------
.intvecs   0    00000000    000000e4     
                  00000000    000000e4     startup_msp432p401r_ccs.obj (.intvecs:retain)

.text      0    000000e4    00002d86     
                  000000e4    000006e0     UART0.obj (.text)
                  000007c4    000005b6     EUSCIA0.obj (.text)
                  00000d7a    00000002     rtsv7M4_T_le_v4SPD16_eabi.lib : _lock.c.obj (.text:_nop)
                  00000d7c    0000043c     Lab18_UARTmain.obj (.text)
                  000011b8    00000420     PWM.obj (.text)
                  000015d8    0000032c     system_msp432p401r.obj (.text)
                  00001904    000001e0     Clock.obj (.text)
                  00001ae4    00000194     Motor.obj (.text)
                  00001c78    0000010c     rtsv7M4_T_le_v4SPD16_eabi.lib : fopen.c.obj (.text:_openfile)
                  00001d84    00000108                                   : memory.c.obj (.text:aligned_alloc)
                  00001e8c    000000f4     LaunchPad.obj (.text)
                  00001f80    000000e4     rtsv7M4_T_le_v4SPD16_eabi.lib : memory.c.obj (.text:free)
                  00002064    000000dc                                   : setvbuf.c.obj (.text:setvbuf)
                  00002140    000000bc                                   : open.c.obj (.text:open)
                  000021fc    000000b8                                   : add_device.c.obj (.text:add_device)
                  000022b4    000000a4     TimerA1.obj (.text)
                  00002358    0000009c     rtsv7M4_T_le_v4SPD16_eabi.lib : fopen.c.obj (.text:fopen)
                  000023f4    0000009c                                   : memcpy_t2.asm.obj (.text)
                  00002490    00000080     Bump.obj (.text)
                  00002510    0000007a     rtsv7M4_T_le_v4SPD16_eabi.lib : memset_t2.asm.obj (.text)
                  0000258a    00000002     --HOLE-- [fill = 0]
                  0000258c    00000078     FIFO0.obj (.text)
                  00002604    00000074     rtsv7M4_T_le_v4SPD16_eabi.lib : fclose.c.obj (.text:__TI_closefile)
                  00002678    00000070                                   : memory.c.obj (.text:split)
                  000026e8    0000006c                                   : hostrename.c.obj (.text:HOSTrename)
                  00002754    0000006c     SysTick.obj (.text)
                  000027c0    00000068     rtsv7M4_T_le_v4SPD16_eabi.lib : hostlseek.c.obj (.text:HOSTlseek)
                  00002828    00000068                                   : copy_decompress_lzss.c.obj (.text:decompress:lzss:__TI_decompress_lzss)
                  00002890    00000060                                   : hostopen.c.obj (.text:HOSTopen)
                  000028f0    0000005c                                   : close.c.obj (.text:close)
                  0000294c    00000058                                   : hostread.c.obj (.text:HOSTread)
                  000029a4    00000058                                   : hostwrite.c.obj (.text:HOSTwrite)
                  000029fc    0000004c                                   : fflush.c.obj (.text:__TI_doflush)
                  00002a48    00000048                                   : exit.c.obj (.text:exit)
                  00002a90    00000044                                   : hostclose.c.obj (.text:HOSTclose)
                  00002ad4    00000044                                   : hostunlink.c.obj (.text:HOSTunlink)
                  00002b18    00000044                                   : autoinit.c.obj (.text:__TI_auto_init_nobinit_nopinit:__TI_auto_init_nobinit_nopinit)
                  00002b5c    00000044                                   : getdevice.c.obj (.text:getdevice)
                  00002ba0    00000038                                   : trgmsg.c.obj (.text:__TI_writemsg)
                  00002bd8    00000036                                   : strncpy.c.obj (.text:strncpy)
                  00002c0e    00000002     --HOLE-- [fill = 0]
                  00002c10    00000034                                   : fopen.c.obj (.text:__TI_cleanup)
                  00002c44    00000034                                   : trgmsg.c.obj (.text:__TI_readmsg)
                  00002c78    00000034                                   : boot_cortex_m.c.obj (.text:_c_int00_noargs:_c_int00_noargs)
                  00002cac    00000034                                   : fopen.c.obj (.text:freopen)
                  00002ce0    00000030                                   : getdevice.c.obj (.text:finddevice)
                  00002d10    0000002c                                   : unlink.c.obj (.text:unlink)
                  00002d3c    00000028                                   : memory.c.obj (.text:free_list_insert)
                  00002d64    00000028                                   : write.c.obj (.text:write)
                  00002d8c    00000024     CortexM.obj (.text)
                  00002db0    0000001c     rtsv7M4_T_le_v4SPD16_eabi.lib : copy_zero_init.c.obj (.text:decompress:ZI:__TI_zero_init_nomemset:__TI_zero_init_nomemset)
                  00002dcc    0000001c                                   : memory.c.obj (.text:free_list_remove)
                  00002de8    00000018                                   : strcmp.c.obj (.text:strcmp)
                  00002e00    00000016                                   : strchr.c.obj (.text:strchr)
                  00002e16    00000014                                   : strcpy.c.obj (.text:strcpy)
                  00002e2a    00000014                                   : strlen.c.obj (.text:strlen)
                  00002e3e    0000000e                                   : copy_decompress_none.c.obj (.text:decompress:none:__TI_decompress_none)
                  00002e4c    0000000e     startup_msp432p401r_ccs.obj (.text)
                  00002e5a    00000008     rtsv7M4_T_le_v4SPD16_eabi.lib : memory.c.obj (.text:malloc)
                  00002e62    00000004                                   : pre_init.c.obj (.text:_system_pre_init)
                  00002e66    00000004                                   : exit.c.obj (.text:abort:abort)

.cinit     0    00002e70    00000098     
                  00002e70    00000072     (.cinit..data.load) [load image, compression = lzss]
                  00002ee2    00000002     --HOLE-- [fill = 0]
                  00002ee4    0000000c     (__TI_handler_table)
                  00002ef0    00000008     (.cinit..bss.load) [load image, compression = zero_init]
                  00002ef8    00000010     (__TI_cinit_table)

.init_array 
*          0    00000000    00000000     UNINITIALIZED

.binit     0    00000000    00000000     

.sysmem    0    20000000    00000400     UNINITIALIZED
                  20000000    00000010     rtsv7M4_T_le_v4SPD16_eabi.lib : memory.c.obj (.sysmem)
                  20000010    000003f0     --HOLE--

.bss       0    20000400    0000033e     UNINITIALIZED
                  20000400    00000120     rtsv7M4_T_le_v4SPD16_eabi.lib : trgmsg.c.obj (.bss:_CIOBUF_)
                  20000520    00000100     (.common:TxHistogram)
                  20000620    000000a0     (.common:__TI_tmpnams)
                  200006c0    00000040     (.common:String)
                  20000700    00000008     (.common:Messageb)
                  20000708    00000008     (.common:Messagec)
                  20000710    00000008     (.common:parmbuf)
                  20000718    00000004     (.common:Elapsed)
                  2000071c    00000004     (.common:First)
                  20000720    00000004     (.common:MaxTime)
                  20000724    00000004     (.common:Messageindexb)
                  20000728    00000004     (.common:Messageindexc)
                  2000072c    00000004     (.common:NumErrors)
                  20000730    00000004     (.common:NumSuccess)
                  20000734    00000004     (.common:Size)
                  20000738    00000004     (.common:TimerA1Task)
                  2000073c    00000001     (.common:ReadData)
                  2000073d    00000001     (.common:WriteData)

.data      0    20000740    00000210     UNINITIALIZED
                  20000740    000000f0     rtsv7M4_T_le_v4SPD16_eabi.lib : defs.c.obj (.data:_ftable)
                  20000830    00000078                                   : host_device.c.obj (.data:_device)
                  200008a8    00000050                                   : host_device.c.obj (.data:_stream)
                  200008f8    00000018     Clock.obj (.data)
                  20000910    00000010     rtsv7M4_T_le_v4SPD16_eabi.lib : defs.c.obj (.data)
                  20000920    0000000c                                   : exit.c.obj (.data:$O1$$)
                  2000092c    00000008                                   : _lock.c.obj (.data:$O1$$)
                  20000934    00000008                                   : memory.c.obj (.data:$O1$$)
                  2000093c    00000004     Lab18_UARTmain.obj (.data)
                  20000940    00000004     rtsv7M4_T_le_v4SPD16_eabi.lib : add_device.c.obj (.data)
                  20000944    00000004                                   : fopen.c.obj (.data)
                  20000948    00000004                                   : open.c.obj (.data)
                  2000094c    00000004     system_msp432p401r.obj (.data)

.stack     0    2000fe00    00000200     UNINITIALIZED
                  2000fe00    00000004     rtsv7M4_T_le_v4SPD16_eabi.lib : boot_cortex_m.c.obj (.stack)
                  2000fe04    000001fc     --HOLE--

__llvm_prf_cnts 
*          0    20000000    00000000     UNINITIALIZED

MODULE SUMMARY

       Module                        code    ro data   rw data
       ------                        ----    -------   -------
    ..\
       UART0.obj                     1760    0         24     
    +--+-----------------------------+-------+---------+---------+
       Total:                        1760    0         24     
                                                              
    .\
       EUSCIA0.obj                   1462    0         24     
       Lab18_UARTmain.obj            1084    0         188    
       PWM.obj                       1056    0         0      
       system_msp432p401r.obj        812     0         8      
       FIFO0.obj                     120     0         512    
       Clock.obj                     480     0         48     
       Motor.obj                     404     0         0      
       LaunchPad.obj                 244     0         0      
       startup_msp432p401r_ccs.obj   14      228       0      
       TimerA1.obj                   164     0         8      
       Bump.obj                      128     0         0      
       SysTick.obj                   108     0         0      
       CortexM.obj                   36      0         0      
    +--+-----------------------------+-------+---------+---------+
       Total:                        6112    228       788    
                                                              
    C:\ti\ccs1010\ccs\tools\compiler\ti-cgt-arm_20.2.1.LTS\lib\rtsv7M4_T_le_v4SPD16_eabi.lib
       defs.c.obj                    0       0         832    
       memory.c.obj                  680     0         16     
       trgmsg.c.obj                  108     0         576    
       fopen.c.obj                   528     0         8      
       host_device.c.obj             0       0         400    
       setvbuf.c.obj                 220     0         0      
       open.c.obj                    188     0         8      
       add_device.c.obj              184     0         8      
       memcpy_t2.asm.obj             156     0         0      
       memset_t2.asm.obj             122     0         0      
       fclose.c.obj                  116     0         0      
       getdevice.c.obj               116     0         0      
       hostopen.c.obj                96      0         16     
       hostrename.c.obj              108     0         0      
       copy_decompress_lzss.c.obj    104     0         0      
       hostlseek.c.obj               104     0         0      
       exit.c.obj                    76      0         24     
       close.c.obj                   92      0         0      
       hostread.c.obj                88      0         0      
       hostwrite.c.obj               88      0         0      
       fflush.c.obj                  76      0         0      
       autoinit.c.obj                68      0         0      
       hostclose.c.obj               68      0         0      
       hostunlink.c.obj              68      0         0      
       strncpy.c.obj                 54      0         0      
       boot_cortex_m.c.obj           52      0         0      
       unlink.c.obj                  44      0         0      
       write.c.obj                   40      0         0      
       copy_zero_init.c.obj          28      0         0      
       strcmp.c.obj                  24      0         0      
       strchr.c.obj                  22      0         0      
       strcpy.c.obj                  20      0         0      
       strlen.c.obj                  20      0         0      
       _lock.c.obj                   2       0         16     
       copy_decompress_none.c.obj    14      0         0      
       pre_init.c.obj                4       0         0      
    +--+-----------------------------+-------+---------+---------+
       Total:                        3778    0         1904   
                                                              
       Heap:                         0       0         2048   
       Stack:                        0       0         1024   
       Linker Generated:             0       150       0      
    +--+-----------------------------+-------+---------+---------+
       Grand Total:                  11650   378       5788   


LINKER GENERATED COPY TABLES

__TI_cinit_table @ 00002ef8 records: 2, size/record: 8, table size: 16
	.data: load addr=00002e70, load size=00000072 bytes, run addr=20000740, run size=00000210 bytes, compression=lzss
	.bss: load addr=00002ef0, load size=00000008 bytes, run addr=20000400, run size=0000033e bytes, compression=zero_init


LINKER GENERATED HANDLER TABLE

__TI_handler_table @ 00002ee4 records: 3, size/record: 4, table size: 12
	index: 0, handler: __TI_decompress_lzss
	index: 1, handler: __TI_decompress_none
	index: 2, handler: __TI_zero_init


GLOBAL SYMBOLS: SORTED ALPHABETICALLY BY Name 

address   name                           
-------   ----                           
00002e59  ADC14_IRQHandler               
00002e59  AES256_IRQHandler              
00002491  Bump_Init                      
000024c5  Bump_Read                      
00002e59  BusFault_Handler               
00002e67  C$$EXIT                        
00002bcf  C$$IO$$                        
00002e59  COMP_E0_IRQHandler             
00002e59  COMP_E1_IRQHandler             
20000900  CPMwait                        
00002e59  CS_IRQHandler                  
200008f8  ClockFrequency                 
00001a59  Clock_Delay1ms                 
00001a2f  Clock_Delay1us                 
00001a1b  Clock_GetFreq                  
00001905  Clock_Init48MHz                
2000090c  Crystalstable                  
00002e59  DMA_ERR_IRQHandler             
00002e59  DMA_INT0_IRQHandler            
00002e59  DMA_INT1_IRQHandler            
00002e59  DMA_INT2_IRQHandler            
00002e59  DMA_INT3_IRQHandler            
00002e59  DebugMon_Handler               
00002e59  Default_Handler                
00002d8d  DisableInterrupts              
00000855  EUSCIA0_IRQHandler             
00000855  EUSCIA0_IRQHandler             
00000829  EUSCIA0_InChar                 
00000cf1  EUSCIA0_InString               
000008a9  EUSCIA0_InUDec                 
00000ba5  EUSCIA0_InUHex                 
000007c5  EUSCIA0_Init                   
0000083b  EUSCIA0_OutChar                
0000088b  EUSCIA0_OutString              
0000092d  EUSCIA0_OutUDec                
00000abd  EUSCIA0_OutUDec4               
00000af5  EUSCIA0_OutUDec5               
00000b31  EUSCIA0_OutUFix1               
00000b59  EUSCIA0_OutUFix2               
00000c6d  EUSCIA0_OutUHex                
00000cd3  EUSCIA0_OutUHex2               
00000cb1  EUSCIA0outnibble               
00002e59  EUSCIA1_IRQHandler             
00002e59  EUSCIA2_IRQHandler             
00002e59  EUSCIA3_IRQHandler             
00002e59  EUSCIB0_IRQHandler             
00002e59  EUSCIB1_IRQHandler             
00002e59  EUSCIB2_IRQHandler             
00002e59  EUSCIB3_IRQHandler             
20000718  Elapsed                        
00002d93  EnableInterrupts               
00002da3  EndCritical                    
00002e59  FLCTL_IRQHandler               
00002e59  FPU_IRQHandler                 
2000071c  First                          
00002a91  HOSTclose                      
000027c1  HOSTlseek                      
00002891  HOSTopen                       
0000294d  HOSTread                       
000026e9  HOSTrename                     
00002ad5  HOSTunlink                     
000029a5  HOSTwrite                      
00002e59  HardFault_Handler              
20000908  IFlags                         
00001e8d  LaunchPad_Init                 
00001efd  LaunchPad_Input                
00001f17  LaunchPad_LED                  
00001f35  LaunchPad_Output               
20000720  MaxTime                        
00002e59  MemManage_Handler              
20000700  Messageb                       
20000708  Messagec                       
20000724  Messageindexb                  
20000728  Messageindexc                  
00001c1d  Motor_Backward                 
00001b55  Motor_Forward                  
00001ae5  Motor_Init                     
00001bd7  Motor_Left                     
00001b91  Motor_Right                    
00001b31  Motor_Stop                     
00002e59  NMI_Handler                    
2000072c  NumErrors                      
20000730  NumSuccess                     
00002e59  PCM_IRQHandler                 
00002e59  PORT1_IRQHandler               
00002e59  PORT2_IRQHandler               
00002e59  PORT3_IRQHandler               
00002e59  PORT4_IRQHandler               
00002e59  PORT5_IRQHandler               
00002e59  PORT6_IRQHandler               
00002e59  PSS_IRQHandler                 
000012a3  PWM_Duty1                      
000012c3  PWM_Duty2                      
00001367  PWM_Duty3                      
00001387  PWM_Duty4                      
000011b9  PWM_Init1                      
0000121f  PWM_Init12                     
000012e3  PWM_Init34                     
000014cf  PWM_RobotArmDuty0              
000014f5  PWM_RobotArmDuty1              
0000151b  PWM_RobotArmDuty2              
000014ef  PWM_RobotArmGetDuty0           
00001515  PWM_RobotArmGetDuty1           
0000153b  PWM_RobotArmGetDuty2           
000013a7  PWM_RobotArmInit               
00002e59  PendSV_Handler                 
20000904  Postwait                       
200008fc  Prewait                        
00000dd9  Program18_1                    
00000e47  Program18_2                    
00000f01  Program18_3                    
00000fe5  Program18_4                    
00002e59  RTC_C_IRQHandler               
00000d7d  Random                         
2000073c  ReadData                       
00002e4d  Reset_Handler                  
000025ef  RxFifo0_Get                    
000025df  RxFifo0_Init                   
000025e1  RxFifo0_Put                    
000025fb  RxFifo0_Size                   
00002e59  SVC_Handler                    
20000734  Size                           
00002d99  StartCritical                  
200006c0  String                         
00002e59  SysTick_Handler                
00002755  SysTick_Init                   
00002765  SysTick_Wait                   
0000278b  SysTick_Wait10ms               
2000094c  SystemCoreClock                
000015d9  SystemCoreClockUpdate          
0000184d  SystemInit                     
00002e59  T32_INT1_IRQHandler            
00002e59  T32_INT2_IRQHandler            
00002e59  T32_INTC_IRQHandler            
00002e59  TA0_0_IRQHandler               
00002e59  TA0_N_IRQHandler               
00002327  TA1_0_IRQHandler               
00002327  TA1_0_IRQHandler               
00002e59  TA1_N_IRQHandler               
00002e59  TA2_0_IRQHandler               
00002e59  TA2_N_IRQHandler               
00002e59  TA3_0_IRQHandler               
00002e59  TA3_N_IRQHandler               
00000d95  TestFifo                       
20000738  TimerA1Task                    
000022b5  TimerA1_Init                   
00002313  TimerA1_Stop                   
000025cf  TxFifo0_Get                    
0000258d  TxFifo0_Init                   
000025b5  TxFifo0_Put                    
000025db  TxFifo0_Size                   
20000520  TxHistogram                    
0000012b  UART0_InChar                   
000005d5  UART0_InString                 
00000175  UART0_InUDec                   
00000489  UART0_InUHex                   
000000e5  UART0_Init                     
00000737  UART0_Initprintf               
0000013b  UART0_OutChar                  
00000229  UART0_OutSDec                  
00000157  UART0_OutString                
000001f9  UART0_OutUDec                  
0000039d  UART0_OutUDec4                 
000003e5  UART0_OutUDec5                 
00000417  UART0_OutUFix1                 
0000043f  UART0_OutUFix2                 
0000054d  UART0_OutUHex                  
000005b9  UART0_OutUHex2                 
00002e59  UsageFault_Handler             
4000480c  WDTCTL_SYM                     
00002e59  WDT_A_IRQHandler               
00002dab  WaitForInterrupt               
2000073d  WriteData                      
20000400  __CIOBUF_                      
20010000  __STACK_END                    
00000200  __STACK_SIZE                   
00000400  __SYSMEM_SIZE                  
00002ef8  __TI_CINIT_Base                
00002f08  __TI_CINIT_Limit               
00002ee4  __TI_Handler_Table_Base        
00002ef0  __TI_Handler_Table_Limit       
00002b19  __TI_auto_init_nobinit_nopinit 
00002c11  __TI_cleanup                   
20000920  __TI_cleanup_ptr               
00002605  __TI_closefile                 
00002829  __TI_decompress_lzss           
00002e3f  __TI_decompress_none           
000029fd  __TI_doflush                   
20000924  __TI_dtors_ptr                 
20000928  __TI_enable_exit_profile_output
20000910  __TI_ft_end                    
ffffffff  __TI_pprof_out_hndl            
ffffffff  __TI_prof_data_size            
ffffffff  __TI_prof_data_start           
00002c45  __TI_readmsg                   
00000000  __TI_static_base__             
20000620  __TI_tmpnams                   
00002ba1  __TI_writemsg                  
00002db1  __TI_zero_init_nomemset        
00002511  __aeabi_memclr                 
00002511  __aeabi_memclr4                
00002511  __aeabi_memclr8                
000023f5  __aeabi_memcpy                 
000023f5  __aeabi_memcpy4                
000023f5  __aeabi_memcpy8                
00002513  __aeabi_memset                 
00002513  __aeabi_memset4                
00002513  __aeabi_memset8                
2000091c  __aeabi_stderr                 
20000914  __aeabi_stdin                  
20000918  __aeabi_stdout                 
ffffffff  __binit__                      
ffffffff  __c_args__                     
UNDEFED   __mpu_init                     
2000fe00  __stack                        
20000000  __start___llvm_prf_cnts        
20000000  __stop___llvm_prf_cnts         
00002c79  _c_int00_noargs                
20000830  _device                        
20000740  _ftable                        
2000092c  _lock                          
00000d7b  _nop                           
200008a8  _stream                        
20000000  _sys_memory                    
UNDEFED   _system_post_cinit             
00002e63  _system_pre_init               
20000930  _unlock                        
00002e67  abort                          
000021fd  add_device                     
00001d85  aligned_alloc                  
ffffffff  binit                          
000028f1  close                          
00001a21  delay                          
00002a49  exit                           
00000669  ferror                         
0000064f  fgetc                          
00002ce1  finddevice                     
00002359  fopen                          
00001f81  free                           
00002cad  freopen                        
00002b5d  getdevice                      
00000000  interruptVectors               
000010dd  main                           
00002e5b  malloc                         
00001d85  memalign                       
000023f5  memcpy                         
00002519  memset                         
00002141  open                           
00000591  outnibble                      
20000710  parmbuf                        
00002d11  remove                         
00002065  setvbuf                        
00002e01  strchr                         
00002de9  strcmp                         
00002e17  strcpy                         
00002e2b  strlen                         
00002bd9  strncpy                        
0000068f  uart_close                     
0000070d  uart_lseek                     
0000067f  uart_open                      
0000069b  uart_read                      
00000729  uart_rename                    
0000071d  uart_unlink                    
000006cb  uart_write                     
00002d11  unlink                         
00002d65  write                          


GLOBAL SYMBOLS: SORTED BY Symbol Address 

address   name                           
-------   ----                           
00000000  __TI_static_base__             
00000000  interruptVectors               
000000e5  UART0_Init                     
0000012b  UART0_InChar                   
0000013b  UART0_OutChar                  
00000157  UART0_OutString                
00000175  UART0_InUDec                   
000001f9  UART0_OutUDec                  
00000200  __STACK_SIZE                   
00000229  UART0_OutSDec                  
0000039d  UART0_OutUDec4                 
000003e5  UART0_OutUDec5                 
00000400  __SYSMEM_SIZE                  
00000417  UART0_OutUFix1                 
0000043f  UART0_OutUFix2                 
00000489  UART0_InUHex                   
0000054d  UART0_OutUHex                  
00000591  outnibble                      
000005b9  UART0_OutUHex2                 
000005d5  UART0_InString                 
0000064f  fgetc                          
00000669  ferror                         
0000067f  uart_open                      
0000068f  uart_close                     
0000069b  uart_read                      
000006cb  uart_write                     
0000070d  uart_lseek                     
0000071d  uart_unlink                    
00000729  uart_rename                    
00000737  UART0_Initprintf               
000007c5  EUSCIA0_Init                   
00000829  EUSCIA0_InChar                 
0000083b  EUSCIA0_OutChar                
00000855  EUSCIA0_IRQHandler             
00000855  EUSCIA0_IRQHandler             
0000088b  EUSCIA0_OutString              
000008a9  EUSCIA0_InUDec                 
0000092d  EUSCIA0_OutUDec                
00000abd  EUSCIA0_OutUDec4               
00000af5  EUSCIA0_OutUDec5               
00000b31  EUSCIA0_OutUFix1               
00000b59  EUSCIA0_OutUFix2               
00000ba5  EUSCIA0_InUHex                 
00000c6d  EUSCIA0_OutUHex                
00000cb1  EUSCIA0outnibble               
00000cd3  EUSCIA0_OutUHex2               
00000cf1  EUSCIA0_InString               
00000d7b  _nop                           
00000d7d  Random                         
00000d95  TestFifo                       
00000dd9  Program18_1                    
00000e47  Program18_2                    
00000f01  Program18_3                    
00000fe5  Program18_4                    
000010dd  main                           
000011b9  PWM_Init1                      
0000121f  PWM_Init12                     
000012a3  PWM_Duty1                      
000012c3  PWM_Duty2                      
000012e3  PWM_Init34                     
00001367  PWM_Duty3                      
00001387  PWM_Duty4                      
000013a7  PWM_RobotArmInit               
000014cf  PWM_RobotArmDuty0              
000014ef  PWM_RobotArmGetDuty0           
000014f5  PWM_RobotArmDuty1              
00001515  PWM_RobotArmGetDuty1           
0000151b  PWM_RobotArmDuty2              
0000153b  PWM_RobotArmGetDuty2           
000015d9  SystemCoreClockUpdate          
0000184d  SystemInit                     
00001905  Clock_Init48MHz                
00001a1b  Clock_GetFreq                  
00001a21  delay                          
00001a2f  Clock_Delay1us                 
00001a59  Clock_Delay1ms                 
00001ae5  Motor_Init                     
00001b31  Motor_Stop                     
00001b55  Motor_Forward                  
00001b91  Motor_Right                    
00001bd7  Motor_Left                     
00001c1d  Motor_Backward                 
00001d85  aligned_alloc                  
00001d85  memalign                       
00001e8d  LaunchPad_Init                 
00001efd  LaunchPad_Input                
00001f17  LaunchPad_LED                  
00001f35  LaunchPad_Output               
00001f81  free                           
00002065  setvbuf                        
00002141  open                           
000021fd  add_device                     
000022b5  TimerA1_Init                   
00002313  TimerA1_Stop                   
00002327  TA1_0_IRQHandler               
00002327  TA1_0_IRQHandler               
00002359  fopen                          
000023f5  __aeabi_memcpy                 
000023f5  __aeabi_memcpy4                
000023f5  __aeabi_memcpy8                
000023f5  memcpy                         
00002491  Bump_Init                      
000024c5  Bump_Read                      
00002511  __aeabi_memclr                 
00002511  __aeabi_memclr4                
00002511  __aeabi_memclr8                
00002513  __aeabi_memset                 
00002513  __aeabi_memset4                
00002513  __aeabi_memset8                
00002519  memset                         
0000258d  TxFifo0_Init                   
000025b5  TxFifo0_Put                    
000025cf  TxFifo0_Get                    
000025db  TxFifo0_Size                   
000025df  RxFifo0_Init                   
000025e1  RxFifo0_Put                    
000025ef  RxFifo0_Get                    
000025fb  RxFifo0_Size                   
00002605  __TI_closefile                 
000026e9  HOSTrename                     
00002755  SysTick_Init                   
00002765  SysTick_Wait                   
0000278b  SysTick_Wait10ms               
000027c1  HOSTlseek                      
00002829  __TI_decompress_lzss           
00002891  HOSTopen                       
000028f1  close                          
0000294d  HOSTread                       
000029a5  HOSTwrite                      
000029fd  __TI_doflush                   
00002a49  exit                           
00002a91  HOSTclose                      
00002ad5  HOSTunlink                     
00002b19  __TI_auto_init_nobinit_nopinit 
00002b5d  getdevice                      
00002ba1  __TI_writemsg                  
00002bcf  C$$IO$$                        
00002bd9  strncpy                        
00002c11  __TI_cleanup                   
00002c45  __TI_readmsg                   
00002c79  _c_int00_noargs                
00002cad  freopen                        
00002ce1  finddevice                     
00002d11  remove                         
00002d11  unlink                         
00002d65  write                          
00002d8d  DisableInterrupts              
00002d93  EnableInterrupts               
00002d99  StartCritical                  
00002da3  EndCritical                    
00002dab  WaitForInterrupt               
00002db1  __TI_zero_init_nomemset        
00002de9  strcmp                         
00002e01  strchr                         
00002e17  strcpy                         
00002e2b  strlen                         
00002e3f  __TI_decompress_none           
00002e4d  Reset_Handler                  
00002e59  ADC14_IRQHandler               
00002e59  AES256_IRQHandler              
00002e59  BusFault_Handler               
00002e59  COMP_E0_IRQHandler             
00002e59  COMP_E1_IRQHandler             
00002e59  CS_IRQHandler                  
00002e59  DMA_ERR_IRQHandler             
00002e59  DMA_INT0_IRQHandler            
00002e59  DMA_INT1_IRQHandler            
00002e59  DMA_INT2_IRQHandler            
00002e59  DMA_INT3_IRQHandler            
00002e59  DebugMon_Handler               
00002e59  Default_Handler                
00002e59  EUSCIA1_IRQHandler             
00002e59  EUSCIA2_IRQHandler             
00002e59  EUSCIA3_IRQHandler             
00002e59  EUSCIB0_IRQHandler             
00002e59  EUSCIB1_IRQHandler             
00002e59  EUSCIB2_IRQHandler             
00002e59  EUSCIB3_IRQHandler             
00002e59  FLCTL_IRQHandler               
00002e59  FPU_IRQHandler                 
00002e59  HardFault_Handler              
00002e59  MemManage_Handler              
00002e59  NMI_Handler                    
00002e59  PCM_IRQHandler                 
00002e59  PORT1_IRQHandler               
00002e59  PORT2_IRQHandler               
00002e59  PORT3_IRQHandler               
00002e59  PORT4_IRQHandler               
00002e59  PORT5_IRQHandler               
00002e59  PORT6_IRQHandler               
00002e59  PSS_IRQHandler                 
00002e59  PendSV_Handler                 
00002e59  RTC_C_IRQHandler               
00002e59  SVC_Handler                    
00002e59  SysTick_Handler                
00002e59  T32_INT1_IRQHandler            
00002e59  T32_INT2_IRQHandler            
00002e59  T32_INTC_IRQHandler            
00002e59  TA0_0_IRQHandler               
00002e59  TA0_N_IRQHandler               
00002e59  TA1_N_IRQHandler               
00002e59  TA2_0_IRQHandler               
00002e59  TA2_N_IRQHandler               
00002e59  TA3_0_IRQHandler               
00002e59  TA3_N_IRQHandler               
00002e59  UsageFault_Handler             
00002e59  WDT_A_IRQHandler               
00002e5b  malloc                         
00002e63  _system_pre_init               
00002e67  C$$EXIT                        
00002e67  abort                          
00002ee4  __TI_Handler_Table_Base        
00002ef0  __TI_Handler_Table_Limit       
00002ef8  __TI_CINIT_Base                
00002f08  __TI_CINIT_Limit               
20000000  __start___llvm_prf_cnts        
20000000  __stop___llvm_prf_cnts         
20000000  _sys_memory                    
20000400  __CIOBUF_                      
20000520  TxHistogram                    
20000620  __TI_tmpnams                   
200006c0  String                         
20000700  Messageb                       
20000708  Messagec                       
20000710  parmbuf                        
20000718  Elapsed                        
2000071c  First                          
20000720  MaxTime                        
20000724  Messageindexb                  
20000728  Messageindexc                  
2000072c  NumErrors                      
20000730  NumSuccess                     
20000734  Size                           
20000738  TimerA1Task                    
2000073c  ReadData                       
2000073d  WriteData                      
20000740  _ftable                        
20000830  _device                        
200008a8  _stream                        
200008f8  ClockFrequency                 
200008fc  Prewait                        
20000900  CPMwait                        
20000904  Postwait                       
20000908  IFlags                         
2000090c  Crystalstable                  
20000910  __TI_ft_end                    
20000914  __aeabi_stdin                  
20000918  __aeabi_stdout                 
2000091c  __aeabi_stderr                 
20000920  __TI_cleanup_ptr               
20000924  __TI_dtors_ptr                 
20000928  __TI_enable_exit_profile_output
2000092c  _lock                          
20000930  _unlock                        
2000094c  SystemCoreClock                
2000fe00  __stack                        
20010000  __STACK_END                    
4000480c  WDTCTL_SYM                     
ffffffff  __TI_pprof_out_hndl            
ffffffff  __TI_prof_data_size            
ffffffff  __TI_prof_data_start           
ffffffff  __binit__                      
ffffffff  __c_args__                     
ffffffff  binit                          
UNDEFED   __mpu_init                     
UNDEFED   _system_post_cinit             

[266 symbols]
