******************************************************************************
                  TI ARM Linker PC v20.2.1                     
******************************************************************************
>> Linked Wed Oct 21 11:04:39 2020

OUTPUT FILE NAME:   <Odometry.out>
ENTRY POINT SYMBOL: "_c_int00_noargs"  address: 00004b05


MEMORY CONFIGURATION

         name            origin    length      used     unused   attr    fill
----------------------  --------  ---------  --------  --------  ----  --------
  MAIN                  00000000   00040000  00007bf6  0003840a  R  X
  INFO                  00200000   00004000  00000000  00004000  R  X
  SRAM_CODE             01000000   00010000  00000e8c  0000f174  RW X
  SRAM_DATA             20000000   00010000  00000e8c  0000f174  RW  


SEGMENT ALLOCATION MAP

run origin  load origin   length   init length attrs members
----------  ----------- ---------- ----------- ----- -------
00000000    00000000    00007bf8   00007bf8    r-x
  00000000    00000000    000000e4   000000e4    r-- .intvecs
  000000e4    000000e4    00004c02   00004c02    r-x .text
  00004ce6    00004ce6    00002e68   00002e68    r-- .const
  00007b50    00007b50    000000a8   000000a8    r-- .cinit
20000000    20000000    00000c90   00000000    rw-
  20000000    20000000    0000065c   00000000    rw- .bss
  20000660    20000660    00000400   00000000    rw- .sysmem
  20000a60    20000a60    00000230   00000000    rw- .data
2000fe00    2000fe00    00000200   00000000    rw-
  2000fe00    2000fe00    00000200   00000000    rw- .stack


SECTION ALLOCATION MAP

 output                                  attributes/
section   page    origin      length       input sections
--------  ----  ----------  ----------   ----------------
.intvecs   0    00000000    000000e4     
                  00000000    000000e4     startup_msp432p401r_ccs.obj (.intvecs:retain)

.text      0    000000e4    00004c02     
                  000000e4    00001798     SSD1306.obj (.text)
                  0000187c    00000ad0     odometry.obj (.text)
                  0000234c    000006e0     UART0.obj (.text)
                  00002a2c    00000420     PWM.obj (.text)
                  00002e4c    0000032c     system_msp432p401r.obj (.text)
                  00003178    00000230     fixed.obj (.text)
                  000033a8    000001e0     Clock.obj (.text)
                  00003588    000001d4     TA3InputCapture.obj (.text)
                  0000375c    0000018c     Motor.obj (.text)
                  000038e8    00000170     OdometryTestMain.obj (.text)
                  00003a58    0000013c     Tachometer.obj (.text)
                  00003b94    0000010c     rtsv7M4_T_le_v4SPD16_eabi.lib : fopen.c.obj (.text:_openfile)
                  00003ca0    00000108                                   : memory.c.obj (.text:aligned_alloc)
                  00003da8    000000f4     LaunchPad.obj (.text)
                  00003e9c    000000e4     rtsv7M4_T_le_v4SPD16_eabi.lib : memory.c.obj (.text:free)
                  00003f80    000000dc                                   : setvbuf.c.obj (.text:setvbuf)
                  0000405c    000000bc                                   : open.c.obj (.text:open)
                  00004118    000000b8                                   : add_device.c.obj (.text:add_device)
                  000041d0    000000a8     TimerA1.obj (.text)
                  00004278    0000009c     rtsv7M4_T_le_v4SPD16_eabi.lib : fopen.c.obj (.text:fopen)
                  00004314    0000009c                                   : memcpy_t2.asm.obj (.text)
                  000043b0    0000007a                                   : memset_t2.asm.obj (.text)
                  0000442a    00000002                                   : _lock.c.obj (.text:_nop)
                  0000442c    00000078     Bump.obj (.text)
                  000044a4    00000074     rtsv7M4_T_le_v4SPD16_eabi.lib : fclose.c.obj (.text:__TI_closefile)
                  00004518    00000070                                   : memory.c.obj (.text:split)
                  00004588    0000006c                                   : hostrename.c.obj (.text:HOSTrename)
                  000045f4    00000068                                   : hostlseek.c.obj (.text:HOSTlseek)
                  0000465c    00000068                                   : copy_decompress_lzss.c.obj (.text:decompress:lzss:__TI_decompress_lzss)
                  000046c4    00000060                                   : hostopen.c.obj (.text:HOSTopen)
                  00004724    0000005c                                   : close.c.obj (.text:close)
                  00004780    00000058                                   : hostread.c.obj (.text:HOSTread)
                  000047d8    00000058                                   : hostwrite.c.obj (.text:HOSTwrite)
                  00004830    00000058     blinker.obj (.text)
                  00004888    0000004c     rtsv7M4_T_le_v4SPD16_eabi.lib : fflush.c.obj (.text:__TI_doflush)
                  000048d4    00000048                                   : exit.c.obj (.text:exit)
                  0000491c    00000044                                   : hostclose.c.obj (.text:HOSTclose)
                  00004960    00000044                                   : hostunlink.c.obj (.text:HOSTunlink)
                  000049a4    00000044                                   : autoinit.c.obj (.text:__TI_auto_init_nobinit_nopinit:__TI_auto_init_nobinit_nopinit)
                  000049e8    00000044                                   : getdevice.c.obj (.text:getdevice)
                  00004a2c    00000038                                   : trgmsg.c.obj (.text:__TI_writemsg)
                  00004a64    00000036                                   : strncpy.c.obj (.text:strncpy)
                  00004a9a    00000002     --HOLE-- [fill = 0]
                  00004a9c    00000034                                   : fopen.c.obj (.text:__TI_cleanup)
                  00004ad0    00000034                                   : trgmsg.c.obj (.text:__TI_readmsg)
                  00004b04    00000034                                   : boot_cortex_m.c.obj (.text:_c_int00_noargs:_c_int00_noargs)
                  00004b38    00000034                                   : fopen.c.obj (.text:freopen)
                  00004b6c    00000030                                   : getdevice.c.obj (.text:finddevice)
                  00004b9c    0000002c                                   : unlink.c.obj (.text:unlink)
                  00004bc8    00000028                                   : memory.c.obj (.text:free_list_insert)
                  00004bf0    00000028                                   : write.c.obj (.text:write)
                  00004c18    00000024     CortexM.obj (.text)
                  00004c3c    0000001c     rtsv7M4_T_le_v4SPD16_eabi.lib : memory.c.obj (.text:free_list_remove)
                  00004c58    00000018                                   : strcmp.c.obj (.text:strcmp)
                  00004c70    00000016                                   : strchr.c.obj (.text:strchr)
                  00004c86    00000014                                   : strcpy.c.obj (.text:strcpy)
                  00004c9a    00000014                                   : strlen.c.obj (.text:strlen)
                  00004cae    0000000e                                   : copy_decompress_none.c.obj (.text:decompress:none:__TI_decompress_none)
                  00004cbc    0000000e     startup_msp432p401r_ccs.obj (.text)
                  00004cca    0000000c     rtsv7M4_T_le_v4SPD16_eabi.lib : copy_zero_init.c.obj (.text:decompress:ZI:__TI_zero_init)
                  00004cd6    00000008                                   : memory.c.obj (.text:malloc)
                  00004cde    00000004                                   : pre_init.c.obj (.text:_system_pre_init)
                  00004ce2    00000004                                   : exit.c.obj (.text:abort:abort)

.const     0    00004ce6    00002e68     
                  00004ce6    00002000     fixed.obj (.const:SinTab2)
                  00006ce6    00000c48     fixed.obj (.const:SinTab)
                  0000792e    000001e0     SSD1306.obj (.const:ASCII)
                  00007b0e    00000008     SSD1306.obj (.const:.string:postmask)
                  00007b16    00000008     SSD1306.obj (.const:.string:premask)
                  00007b1e    00000006     SSD1306.obj (.const:.string:init5)
                  00007b24    00000005     SSD1306.obj (.const:.string:dlist1)
                  00007b29    00000004     SSD1306.obj (.const:.string:init1)
                  00007b2d    00000004     SSD1306.obj (.const:.string:init2)
                  00007b31    00000004     SSD1306.obj (.const:.string:init3)
                  00007b35    00000003     SSD1306.obj (.const:.string:init4b)
                  00007b38    00000003     SSD1306.obj (.const:.string:scrollList1b)
                  00007b3b    00000003     SSD1306.obj (.const:.string:scrollList2b)
                  00007b3e    00000002     SSD1306.obj (.const:.string:scrollList1a)
                  00007b40    00000002     SSD1306.obj (.const:.string:scrollList2a)
                  00007b42    00000002     SSD1306.obj (.const:.string:scrollList3a)
                  00007b44    00000002     SSD1306.obj (.const:.string:scrollList3b)
                  00007b46    00000002     SSD1306.obj (.const:.string:scrollList3c)
                  00007b48    00000002     SSD1306.obj (.const:.string:scrollList4a)
                  00007b4a    00000002     SSD1306.obj (.const:.string:scrollList4b)
                  00007b4c    00000002     SSD1306.obj (.const:.string:scrollList4c)

.cinit     0    00007b50    000000a8     
                  00007b50    00000083     (.cinit..data.load) [load image, compression = lzss]
                  00007bd3    00000001     --HOLE-- [fill = 0]
                  00007bd4    0000000c     (__TI_handler_table)
                  00007be0    00000008     (.cinit..bss.load) [load image, compression = zero_init]
                  00007be8    00000010     (__TI_cinit_table)

.init_array 
*          0    00000000    00000000     UNINITIALIZED

.binit     0    00000000    00000000     

.bss       0    20000000    0000065c     UNINITIALIZED
                  20000000    00000400     (.common:buffer)
                  20000400    00000120     rtsv7M4_T_le_v4SPD16_eabi.lib : trgmsg.c.obj (.bss:_CIOBUF_)
                  20000520    000000a0     (.common:__TI_tmpnams)
                  200005c0    00000008     (.common:Messageb)
                  200005c8    00000008     (.common:parmbuf)
                  200005d0    00000004     (.common:Error)
                  200005d4    00000004     (.common:L)
                  200005d8    00000004     (.common:LastLeftSteps)
                  200005dc    00000004     (.common:LastRightSteps)
                  200005e0    00000004     (.common:LeftSteps)
                  200005e4    00000004     (.common:Lr)
                  200005e8    00000004     (.common:Messageindexb)
                  200005ec    00000004     (.common:MyTheta)
                  200005f0    00000004     (.common:MyX)
                  200005f4    00000004     (.common:MyY)
                  200005f8    00000004     (.common:R)
                  200005fc    00000004     (.common:RightSteps)
                  20000600    00000004     (.common:Robottheta)
                  20000604    00000004     (.common:Robotx)
                  20000608    00000004     (.common:Roboty)
                  2000060c    00000004     (.common:Rr)
                  20000610    00000004     (.common:TimerA1Task)
                  20000614    00000004     (.common:TotalLeftSteps)
                  20000618    00000004     (.common:TotalRightSteps)
                  2000061c    00000004     (.common:badCount)
                  20000620    00000004     (.common:desiredTh)
                  20000624    00000004     (.common:desiredX)
                  20000628    00000004     (.common:desiredY)
                  2000062c    00000004     (.common:dtheta)
                  20000630    00000004     (.common:dz)
                  20000634    00000004     (.common:goal)
                  20000638    00000004     (.common:lastgoal)
                  2000063c    00000004     (.common:result)
                  20000640    00000004     (.common:rotation)
                  20000644    00000004     (.common:vccstate)
                  20000648    00000002     (.common:LeftTach)
                  2000064a    00000002     (.common:RightTach)
                  2000064c    00000002     (.common:StartX)
                  2000064e    00000002     (.common:StartY)
                  20000650    00000002     (.common:Tachometer_FirstLeftTime)
                  20000652    00000002     (.common:Tachometer_FirstRightTime)
                  20000654    00000002     (.common:Tachometer_SecondLeftTime)
                  20000656    00000002     (.common:Tachometer_SecondRightTime)
                  20000658    00000001     (.common:Action)
                  20000659    00000001     (.common:Goal)
                  2000065a    00000001     (.common:LeftDir)
                  2000065b    00000001     (.common:RightDir)

.sysmem    0    20000660    00000400     UNINITIALIZED
                  20000660    00000010     rtsv7M4_T_le_v4SPD16_eabi.lib : memory.c.obj (.sysmem)
                  20000670    000003f0     --HOLE--

.data      0    20000a60    00000230     UNINITIALIZED
                  20000a60    000000f0     rtsv7M4_T_le_v4SPD16_eabi.lib : defs.c.obj (.data:_ftable)
                  20000b50    00000078                                   : host_device.c.obj (.data:_device)
                  20000bc8    00000050                                   : host_device.c.obj (.data:_stream)
                  20000c18    00000018     Clock.obj (.data)
                  20000c30    00000010     rtsv7M4_T_le_v4SPD16_eabi.lib : defs.c.obj (.data)
                  20000c40    0000000c                                   : exit.c.obj (.data:$O1$$)
                  20000c4c    0000000c     TA3InputCapture.obj (.data)
                  20000c58    0000000a     Tachometer.obj (.data)
                  20000c62    00000002     --HOLE--
                  20000c64    00000008     rtsv7M4_T_le_v4SPD16_eabi.lib : _lock.c.obj (.data:$O1$$)
                  20000c6c    00000008                                   : memory.c.obj (.data:$O1$$)
                  20000c74    00000008     odometry.obj (.data)
                  20000c7c    00000004     SSD1306.obj (.data)
                  20000c80    00000004     rtsv7M4_T_le_v4SPD16_eabi.lib : add_device.c.obj (.data)
                  20000c84    00000004                                   : fopen.c.obj (.data)
                  20000c88    00000004                                   : open.c.obj (.data)
                  20000c8c    00000004     system_msp432p401r.obj (.data)

.stack     0    2000fe00    00000200     UNINITIALIZED
                  2000fe00    00000004     rtsv7M4_T_le_v4SPD16_eabi.lib : boot_cortex_m.c.obj (.stack)
                  2000fe04    000001fc     --HOLE--

__llvm_prf_cnts 
*          0    20000000    00000000     UNINITIALIZED

MODULE SUMMARY

       Module                        code    ro data   rw data
       ------                        ----    -------   -------
    ..\
       SSD1306.obj                   6040    544       2080   
       UART0.obj                     1760    0         24     
       PWM.obj                       1056    0         0      
       TA3InputCapture.obj           468     0         24     
       Motor.obj                     396     0         0      
       Tachometer.obj                316     0         36     
       TimerA1.obj                   168     0         8      
       Bump.obj                      120     0         0      
    +--+-----------------------------+-------+---------+---------+
       Total:                        10324   544       2172   
                                                              
    .\
       fixed.obj                     560     11336     0      
       odometry.obj                  2768    0         232    
       system_msp432p401r.obj        812     0         8      
       Clock.obj                     480     0         48     
       OdometryTestMain.obj          368     0         8      
       LaunchPad.obj                 244     0         0      
       startup_msp432p401r_ccs.obj   14      228       0      
       blinker.obj                   88      0         0      
       CortexM.obj                   36      0         0      
    +--+-----------------------------+-------+---------+---------+
       Total:                        5370    11564     296    
                                                              
    C:\ti\ccs1010\ccs\tools\compiler\ti-cgt-arm_20.2.1.LTS\lib\rtsv7M4_T_le_v4SPD16_eabi.lib
       defs.c.obj                    0       0         832    
       memory.c.obj                  680     0         16     
       trgmsg.c.obj                  108     0         576    
       fopen.c.obj                   528     0         8      
       host_device.c.obj             0       0         400    
       setvbuf.c.obj                 220     0         0      
       open.c.obj                    188     0         8      
       add_device.c.obj              184     0         8      
       memcpy_t2.asm.obj             156     0         0      
       memset_t2.asm.obj             122     0         0      
       fclose.c.obj                  116     0         0      
       getdevice.c.obj               116     0         0      
       hostopen.c.obj                96      0         16     
       hostrename.c.obj              108     0         0      
       copy_decompress_lzss.c.obj    104     0         0      
       hostlseek.c.obj               104     0         0      
       exit.c.obj                    76      0         24     
       close.c.obj                   92      0         0      
       hostread.c.obj                88      0         0      
       hostwrite.c.obj               88      0         0      
       fflush.c.obj                  76      0         0      
       autoinit.c.obj                68      0         0      
       hostclose.c.obj               68      0         0      
       hostunlink.c.obj              68      0         0      
       strncpy.c.obj                 54      0         0      
       boot_cortex_m.c.obj           52      0         0      
       unlink.c.obj                  44      0         0      
       write.c.obj                   40      0         0      
       strcmp.c.obj                  24      0         0      
       strchr.c.obj                  22      0         0      
       strcpy.c.obj                  20      0         0      
       strlen.c.obj                  20      0         0      
       _lock.c.obj                   2       0         16     
       copy_decompress_none.c.obj    14      0         0      
       copy_zero_init.c.obj          12      0         0      
       pre_init.c.obj                4       0         0      
    +--+-----------------------------+-------+---------+---------+
       Total:                        3762    0         1904   
                                                              
       Heap:                         0       0         2048   
       Stack:                        0       0         1024   
       Linker Generated:             0       167       0      
    +--+-----------------------------+-------+---------+---------+
       Grand Total:                  19456   12275     7444   


LINKER GENERATED COPY TABLES

__TI_cinit_table @ 00007be8 records: 2, size/record: 8, table size: 16
	.data: load addr=00007b50, load size=00000083 bytes, run addr=20000a60, run size=00000230 bytes, compression=lzss
	.bss: load addr=00007be0, load size=00000008 bytes, run addr=20000000, run size=0000065c bytes, compression=zero_init


LINKER GENERATED HANDLER TABLE

__TI_handler_table @ 00007bd4 records: 3, size/record: 4, table size: 12
	index: 0, handler: __TI_decompress_lzss
	index: 1, handler: __TI_decompress_none
	index: 2, handler: __TI_zero_init


GLOBAL SYMBOLS: SORTED ALPHABETICALLY BY Name 

address   name                           
-------   ----                           
00004cc9  ADC14_IRQHandler               
00004cc9  AES256_IRQHandler              
20000658  Action                         
00004831  Blinker_Init                   
0000485b  Blinker_Output                 
0000442d  Bump_Init                      
00004461  Bump_Read                      
00004cc9  BusFault_Handler               
00004ce3  C$$EXIT                        
00004a5b  C$$IO$$                        
00004cc9  COMP_E0_IRQHandler             
00004cc9  COMP_E1_IRQHandler             
20000c20  CPMwait                        
00004cc9  CS_IRQHandler                  
20000c4c  CaptureTask0                   
20000c50  CaptureTask1                   
20000c54  CaptureTask2                   
000022ed  CheckGoal                      
20000c18  ClockFrequency                 
000034fd  Clock_Delay1ms                 
000034d3  Clock_Delay1us                 
000034bf  Clock_GetFreq                  
000033a9  Clock_Init48MHz                
20000c2c  Crystalstable                  
20000c7c  CurrentX                       
20000c7e  CurrentY                       
00004cc9  DMA_ERR_IRQHandler             
00004cc9  DMA_INT0_IRQHandler            
00004cc9  DMA_INT1_IRQHandler            
00004cc9  DMA_INT2_IRQHandler            
00004cc9  DMA_INT3_IRQHandler            
00004cc9  DebugMon_Handler               
00004cc9  Default_Handler                
00004c19  DisableInterrupts              
00001c3d  Display                        
00004cc9  EUSCIA0_IRQHandler             
00004cc9  EUSCIA1_IRQHandler             
00004cc9  EUSCIA2_IRQHandler             
00004cc9  EUSCIA3_IRQHandler             
00004cc9  EUSCIB0_IRQHandler             
00004cc9  EUSCIB1_IRQHandler             
00004cc9  EUSCIB2_IRQHandler             
00004cc9  EUSCIB3_IRQHandler             
00004c1f  EnableInterrupts               
00004c2f  EndCritical                    
200005d0  Error                          
00004cc9  FLCTL_IRQHandler               
00004cc9  FPU_IRQHandler                 
00001dcd  Forward                        
00001e85  ForwardUntilCrash              
00002245  ForwardUntilThStatus           
00001ec5  ForwardUntilX                  
00001f67  ForwardUntilXStart             
00001fcd  ForwardUntilXStatus            
0000203d  ForwardUntilY                  
000020c1  ForwardUntilYStart             
000020ef  ForwardUntilYStatus            
20000659  Goal                           
0000491d  HOSTclose                      
000045f5  HOSTlseek                      
000046c5  HOSTopen                       
00004781  HOSTread                       
00004589  HOSTrename                     
00004961  HOSTunlink                     
000047d9  HOSTwrite                      
00004cc9  HardFault_Handler              
00001ded  HardLeft                       
00001e0d  HardRight                      
20000c28  IFlags                         
200005d4  L                              
200005d8  LastLeftSteps                  
200005dc  LastRightSteps                 
00003da9  LaunchPad_Init                 
00003e19  LaunchPad_Input                
00003e33  LaunchPad_LED                  
00003e51  LaunchPad_Output               
2000065a  LeftDir                        
200005e0  LeftSteps                      
20000648  LeftTach                       
200005e4  Lr                             
00004cc9  MemManage_Handler              
200005c0  Messageb                       
200005e8  Messageindexb                  
20000c74  MotorFast                      
20000c78  MotorSlow                      
0000388b  Motor_Backward                 
000037c3  Motor_Forward                  
0000375d  Motor_Init                     
00003845  Motor_Left                     
000037ff  Motor_Right                    
000037af  Motor_Stop                     
200005ec  MyTheta                        
200005f0  MyX                            
200005f4  MyY                            
00004cc9  NMI_Handler                    
00001b69  Odometry_Get                   
00001b59  Odometry_GetAngle              
00001b4d  Odometry_GetX                  
00001b53  Odometry_GetY                  
00001895  Odometry_Init                  
0000187d  Odometry_SetPower              
000018b5  Odometry_Update                
00004cc9  PCM_IRQHandler                 
00004cc9  PORT1_IRQHandler               
00004cc9  PORT2_IRQHandler               
00004cc9  PORT3_IRQHandler               
00004cc9  PORT4_IRQHandler               
00004cc9  PORT5_IRQHandler               
00004cc9  PORT6_IRQHandler               
00004cc9  PSS_IRQHandler                 
00002b17  PWM_Duty1                      
00002b37  PWM_Duty2                      
00002bdb  PWM_Duty3                      
00002bfb  PWM_Duty4                      
00002a2d  PWM_Init1                      
00002a93  PWM_Init12                     
00002b57  PWM_Init34                     
00002d43  PWM_RobotArmDuty0              
00002d69  PWM_RobotArmDuty1              
00002d8f  PWM_RobotArmDuty2              
00002d63  PWM_RobotArmGetDuty0           
00002d89  PWM_RobotArmGetDuty1           
00002daf  PWM_RobotArmGetDuty2           
00002c1b  PWM_RobotArmInit               
00004cc9  PendSV_Handler                 
20000c24  Postwait                       
20000c1c  Prewait                        
200005f8  R                              
00004cc9  RTC_C_IRQHandler               
00004cbd  Reset_Handler                  
2000065b  RightDir                       
200005fc  RightSteps                     
2000064a  RightTach                      
20000600  Robottheta                     
20000604  Robotx                         
20000608  Roboty                         
2000060c  Rr                             
00000549  SSD1306_Clear                  
00000509  SSD1306_ClearBuffer            
00000f65  SSD1306_Dim                    
00000e1f  SSD1306_DisplayBuffer          
00000409  SSD1306_DrawChar               
000007e1  SSD1306_DrawFastHLine          
00000a05  SSD1306_DrawFastVLine          
0000059d  SSD1306_DrawFullImage          
00000289  SSD1306_DrawPixel              
000004bd  SSD1306_DrawString             
00000e1b  SSD1306_GetBuffer              
00000d1d  SSD1306_GetPixel               
00000183  SSD1306_Init                   
00000f4f  SSD1306_InvertDisplay          
00001011  SSD1306_OutChar                
00001727  SSD1306_OutHex7                
00001375  SSD1306_OutSDec                
00001639  SSD1306_OutSFix1               
00001137  SSD1306_OutString              
00001191  SSD1306_OutUDec                
00001785  SSD1306_OutUDec16              
0000181d  SSD1306_OutUDec2               
000015ab  SSD1306_OutUFix1               
0000175d  SSD1306_OutUHex7               
00000601  SSD1306_PrintBMP               
00000f97  SSD1306_SetCursor              
000008f3  SSD1306_drawFastHLineInternal  
00000b1d  SSD1306_drawFastVLineInternal  
00000f05  SSD1306_startscrolldiagleft    
00000ec1  SSD1306_startscrolldiagright   
00000e8b  SSD1306_startscrollleft        
00000e59  SSD1306_startscrollright       
00000f45  SSD1306_stopscroll             
00004cc9  SVC_Handler                    
00006ce6  SinTab                         
00004ce6  SinTab2                        
00001e2d  SoftLeft                       
0000215f  SoftLeftUntilTh                
00002209  SoftLeftUntilThStart           
00001e51  SoftRight                      
00004c25  StartCritical                  
2000064c  StartX                         
2000064e  StartY                         
00001db7  StopUntilBumperTouched         
00004cc9  SysTick_Handler                
20000c8c  SystemCoreClock                
00002e4d  SystemCoreClockUpdate          
000030c1  SystemInit                     
00004cc9  T32_INT1_IRQHandler            
00004cc9  T32_INT2_IRQHandler            
00004cc9  T32_INTC_IRQHandler            
00004cc9  TA0_0_IRQHandler               
00004cc9  TA0_N_IRQHandler               
00004243  TA1_0_IRQHandler               
00004243  TA1_0_IRQHandler               
00004cc9  TA1_N_IRQHandler               
00004cc9  TA2_0_IRQHandler               
00004cc9  TA2_N_IRQHandler               
00003615  TA3_0_IRQHandler               
00003615  TA3_0_IRQHandler               
0000362f  TA3_N_IRQHandler               
0000362f  TA3_N_IRQHandler               
20000650  Tachometer_FirstLeftTime       
20000652  Tachometer_FirstRightTime      
00003b0f  Tachometer_Get                 
00003ae5  Tachometer_Init                
20000c61  Tachometer_LeftDir             
20000c5c  Tachometer_LeftSteps           
20000c60  Tachometer_RightDir            
20000c58  Tachometer_RightSteps          
20000654  Tachometer_SecondLeftTime      
20000656  Tachometer_SecondRightTime     
20000610  TimerA1Task                    
000041d1  TimerA1_Init                   
0000422f  TimerA1_Stop                   
00003595  TimerA3Capture_Init01          
0000366f  TimerA3Capture_Init02          
20000614  TotalLeftSteps                 
20000618  TotalRightSteps                
00002393  UART0_InChar                   
0000283d  UART0_InString                 
000023dd  UART0_InUDec                   
000026f1  UART0_InUHex                   
0000234d  UART0_Init                     
0000299f  UART0_Initprintf               
000023a3  UART0_OutChar                  
00002491  UART0_OutSDec                  
000023bf  UART0_OutString                
00002461  UART0_OutUDec                  
00002605  UART0_OutUDec4                 
0000264d  UART0_OutUDec5                 
0000267f  UART0_OutUFix1                 
000026a7  UART0_OutUFix2                 
000027b5  UART0_OutUHex                  
00002821  UART0_OutUHex2                 
00001bc9  UpdatePosition                 
00004cc9  UsageFault_Handler             
4000480c  WDTCTL_SYM                     
00004cc9  WDT_A_IRQHandler               
00004c37  WaitForInterrupt               
00001d43  WaitUntilBumperTouched         
20000400  __CIOBUF_                      
20010000  __STACK_END                    
00000200  __STACK_SIZE                   
00000400  __SYSMEM_SIZE                  
00007be8  __TI_CINIT_Base                
00007bf8  __TI_CINIT_Limit               
00007bd4  __TI_Handler_Table_Base        
00007be0  __TI_Handler_Table_Limit       
000049a5  __TI_auto_init_nobinit_nopinit 
00004a9d  __TI_cleanup                   
20000c40  __TI_cleanup_ptr               
000044a5  __TI_closefile                 
0000465d  __TI_decompress_lzss           
00004caf  __TI_decompress_none           
00004889  __TI_doflush                   
20000c44  __TI_dtors_ptr                 
20000c48  __TI_enable_exit_profile_output
20000c30  __TI_ft_end                    
ffffffff  __TI_pprof_out_hndl            
ffffffff  __TI_prof_data_size            
ffffffff  __TI_prof_data_start           
00004ad1  __TI_readmsg                   
00000000  __TI_static_base__             
20000520  __TI_tmpnams                   
00004a2d  __TI_writemsg                  
00004ccb  __TI_zero_init                 
000043b1  __aeabi_memclr                 
000043b1  __aeabi_memclr4                
000043b1  __aeabi_memclr8                
00004315  __aeabi_memcpy                 
00004315  __aeabi_memcpy4                
00004315  __aeabi_memcpy8                
000043b3  __aeabi_memset                 
000043b3  __aeabi_memset4                
000043b3  __aeabi_memset8                
20000c3c  __aeabi_stderr                 
20000c34  __aeabi_stdin                  
20000c38  __aeabi_stdout                 
ffffffff  __binit__                      
ffffffff  __c_args__                     
UNDEFED   __mpu_init                     
2000fe00  __stack                        
20000000  __start___llvm_prf_cnts        
20000000  __stop___llvm_prf_cnts         
00004b05  _c_int00_noargs                
20000b50  _device                        
20000a60  _ftable                        
20000c64  _lock                          
0000442b  _nop                           
20000bc8  _stream                        
20000660  _sys_memory                    
UNDEFED   _system_post_cinit             
00004cdf  _system_pre_init               
20000c68  _unlock                        
00004ce3  abort                          
00001ba5  abs                            
00004119  add_device                     
00003ca1  aligned_alloc                  
2000061c  badCount                       
ffffffff  binit                          
20000000  buffer                         
00004725  close                          
000034c5  delay                          
20000620  desiredTh                      
20000624  desiredX                       
20000628  desiredY                       
2000062c  dtheta                         
20000630  dz                             
000048d5  exit                           
000028d1  ferror                         
000028b7  fgetc                          
00004b6d  finddevice                     
000031f1  fixed_cos                      
000032fb  fixed_cos2                     
00003179  fixed_sin                      
0000326d  fixed_sin2                     
00004279  fopen                          
00003e9d  free                           
00004b39  freopen                        
000049e9  getdevice                      
20000634  goal                           
00000000  interruptVectors               
20000638  lastgoal                       
000038e9  main                           
00004cd7  malloc                         
00003ca1  memalign                       
00004315  memcpy                         
000043b9  memset                         
0000405d  open                           
000027f9  outnibble                      
200005c8  parmbuf                        
00004b9d  remove                         
2000063c  result                         
20000640  rotation                       
00003f81  setvbuf                        
0000010f  ssd1306_Testcommandwrite       
0000013b  ssd1306_command                
0000014b  ssd1306_command1               
0000015b  ssd1306_commandList            
00004c71  strchr                         
00004c59  strcmp                         
00004c87  strcpy                         
00004c9b  strlen                         
00004a65  strncpy                        
00003589  ta3dummy                       
00003a9f  tachometerLeftInt              
00003a59  tachometerRightInt             
000028f7  uart_close                     
00002975  uart_lseek                     
000028e7  uart_open                      
00002903  uart_read                      
00002991  uart_rename                    
00002985  uart_unlink                    
00002933  uart_write                     
00004b9d  unlink                         
20000644  vccstate                       
00004bf1  write                          


GLOBAL SYMBOLS: SORTED BY Symbol Address 

address   name                           
-------   ----                           
00000000  __TI_static_base__             
00000000  interruptVectors               
0000010f  ssd1306_Testcommandwrite       
0000013b  ssd1306_command                
0000014b  ssd1306_command1               
0000015b  ssd1306_commandList            
00000183  SSD1306_Init                   
00000200  __STACK_SIZE                   
00000289  SSD1306_DrawPixel              
00000400  __SYSMEM_SIZE                  
00000409  SSD1306_DrawChar               
000004bd  SSD1306_DrawString             
00000509  SSD1306_ClearBuffer            
00000549  SSD1306_Clear                  
0000059d  SSD1306_DrawFullImage          
00000601  SSD1306_PrintBMP               
000007e1  SSD1306_DrawFastHLine          
000008f3  SSD1306_drawFastHLineInternal  
00000a05  SSD1306_DrawFastVLine          
00000b1d  SSD1306_drawFastVLineInternal  
00000d1d  SSD1306_GetPixel               
00000e1b  SSD1306_GetBuffer              
00000e1f  SSD1306_DisplayBuffer          
00000e59  SSD1306_startscrollright       
00000e8b  SSD1306_startscrollleft        
00000ec1  SSD1306_startscrolldiagright   
00000f05  SSD1306_startscrolldiagleft    
00000f45  SSD1306_stopscroll             
00000f4f  SSD1306_InvertDisplay          
00000f65  SSD1306_Dim                    
00000f97  SSD1306_SetCursor              
00001011  SSD1306_OutChar                
00001137  SSD1306_OutString              
00001191  SSD1306_OutUDec                
00001375  SSD1306_OutSDec                
000015ab  SSD1306_OutUFix1               
00001639  SSD1306_OutSFix1               
00001727  SSD1306_OutHex7                
0000175d  SSD1306_OutUHex7               
00001785  SSD1306_OutUDec16              
0000181d  SSD1306_OutUDec2               
0000187d  Odometry_SetPower              
00001895  Odometry_Init                  
000018b5  Odometry_Update                
00001b4d  Odometry_GetX                  
00001b53  Odometry_GetY                  
00001b59  Odometry_GetAngle              
00001b69  Odometry_Get                   
00001ba5  abs                            
00001bc9  UpdatePosition                 
00001c3d  Display                        
00001d43  WaitUntilBumperTouched         
00001db7  StopUntilBumperTouched         
00001dcd  Forward                        
00001ded  HardLeft                       
00001e0d  HardRight                      
00001e2d  SoftLeft                       
00001e51  SoftRight                      
00001e85  ForwardUntilCrash              
00001ec5  ForwardUntilX                  
00001f67  ForwardUntilXStart             
00001fcd  ForwardUntilXStatus            
0000203d  ForwardUntilY                  
000020c1  ForwardUntilYStart             
000020ef  ForwardUntilYStatus            
0000215f  SoftLeftUntilTh                
00002209  SoftLeftUntilThStart           
00002245  ForwardUntilThStatus           
000022ed  CheckGoal                      
0000234d  UART0_Init                     
00002393  UART0_InChar                   
000023a3  UART0_OutChar                  
000023bf  UART0_OutString                
000023dd  UART0_InUDec                   
00002461  UART0_OutUDec                  
00002491  UART0_OutSDec                  
00002605  UART0_OutUDec4                 
0000264d  UART0_OutUDec5                 
0000267f  UART0_OutUFix1                 
000026a7  UART0_OutUFix2                 
000026f1  UART0_InUHex                   
000027b5  UART0_OutUHex                  
000027f9  outnibble                      
00002821  UART0_OutUHex2                 
0000283d  UART0_InString                 
000028b7  fgetc                          
000028d1  ferror                         
000028e7  uart_open                      
000028f7  uart_close                     
00002903  uart_read                      
00002933  uart_write                     
00002975  uart_lseek                     
00002985  uart_unlink                    
00002991  uart_rename                    
0000299f  UART0_Initprintf               
00002a2d  PWM_Init1                      
00002a93  PWM_Init12                     
00002b17  PWM_Duty1                      
00002b37  PWM_Duty2                      
00002b57  PWM_Init34                     
00002bdb  PWM_Duty3                      
00002bfb  PWM_Duty4                      
00002c1b  PWM_RobotArmInit               
00002d43  PWM_RobotArmDuty0              
00002d63  PWM_RobotArmGetDuty0           
00002d69  PWM_RobotArmDuty1              
00002d89  PWM_RobotArmGetDuty1           
00002d8f  PWM_RobotArmDuty2              
00002daf  PWM_RobotArmGetDuty2           
00002e4d  SystemCoreClockUpdate          
000030c1  SystemInit                     
00003179  fixed_sin                      
000031f1  fixed_cos                      
0000326d  fixed_sin2                     
000032fb  fixed_cos2                     
000033a9  Clock_Init48MHz                
000034bf  Clock_GetFreq                  
000034c5  delay                          
000034d3  Clock_Delay1us                 
000034fd  Clock_Delay1ms                 
00003589  ta3dummy                       
00003595  TimerA3Capture_Init01          
00003615  TA3_0_IRQHandler               
00003615  TA3_0_IRQHandler               
0000362f  TA3_N_IRQHandler               
0000362f  TA3_N_IRQHandler               
0000366f  TimerA3Capture_Init02          
0000375d  Motor_Init                     
000037af  Motor_Stop                     
000037c3  Motor_Forward                  
000037ff  Motor_Right                    
00003845  Motor_Left                     
0000388b  Motor_Backward                 
000038e9  main                           
00003a59  tachometerRightInt             
00003a9f  tachometerLeftInt              
00003ae5  Tachometer_Init                
00003b0f  Tachometer_Get                 
00003ca1  aligned_alloc                  
00003ca1  memalign                       
00003da9  LaunchPad_Init                 
00003e19  LaunchPad_Input                
00003e33  LaunchPad_LED                  
00003e51  LaunchPad_Output               
00003e9d  free                           
00003f81  setvbuf                        
0000405d  open                           
00004119  add_device                     
000041d1  TimerA1_Init                   
0000422f  TimerA1_Stop                   
00004243  TA1_0_IRQHandler               
00004243  TA1_0_IRQHandler               
00004279  fopen                          
00004315  __aeabi_memcpy                 
00004315  __aeabi_memcpy4                
00004315  __aeabi_memcpy8                
00004315  memcpy                         
000043b1  __aeabi_memclr                 
000043b1  __aeabi_memclr4                
000043b1  __aeabi_memclr8                
000043b3  __aeabi_memset                 
000043b3  __aeabi_memset4                
000043b3  __aeabi_memset8                
000043b9  memset                         
0000442b  _nop                           
0000442d  Bump_Init                      
00004461  Bump_Read                      
000044a5  __TI_closefile                 
00004589  HOSTrename                     
000045f5  HOSTlseek                      
0000465d  __TI_decompress_lzss           
000046c5  HOSTopen                       
00004725  close                          
00004781  HOSTread                       
000047d9  HOSTwrite                      
00004831  Blinker_Init                   
0000485b  Blinker_Output                 
00004889  __TI_doflush                   
000048d5  exit                           
0000491d  HOSTclose                      
00004961  HOSTunlink                     
000049a5  __TI_auto_init_nobinit_nopinit 
000049e9  getdevice                      
00004a2d  __TI_writemsg                  
00004a5b  C$$IO$$                        
00004a65  strncpy                        
00004a9d  __TI_cleanup                   
00004ad1  __TI_readmsg                   
00004b05  _c_int00_noargs                
00004b39  freopen                        
00004b6d  finddevice                     
00004b9d  remove                         
00004b9d  unlink                         
00004bf1  write                          
00004c19  DisableInterrupts              
00004c1f  EnableInterrupts               
00004c25  StartCritical                  
00004c2f  EndCritical                    
00004c37  WaitForInterrupt               
00004c59  strcmp                         
00004c71  strchr                         
00004c87  strcpy                         
00004c9b  strlen                         
00004caf  __TI_decompress_none           
00004cbd  Reset_Handler                  
00004cc9  ADC14_IRQHandler               
00004cc9  AES256_IRQHandler              
00004cc9  BusFault_Handler               
00004cc9  COMP_E0_IRQHandler             
00004cc9  COMP_E1_IRQHandler             
00004cc9  CS_IRQHandler                  
00004cc9  DMA_ERR_IRQHandler             
00004cc9  DMA_INT0_IRQHandler            
00004cc9  DMA_INT1_IRQHandler            
00004cc9  DMA_INT2_IRQHandler            
00004cc9  DMA_INT3_IRQHandler            
00004cc9  DebugMon_Handler               
00004cc9  Default_Handler                
00004cc9  EUSCIA0_IRQHandler             
00004cc9  EUSCIA1_IRQHandler             
00004cc9  EUSCIA2_IRQHandler             
00004cc9  EUSCIA3_IRQHandler             
00004cc9  EUSCIB0_IRQHandler             
00004cc9  EUSCIB1_IRQHandler             
00004cc9  EUSCIB2_IRQHandler             
00004cc9  EUSCIB3_IRQHandler             
00004cc9  FLCTL_IRQHandler               
00004cc9  FPU_IRQHandler                 
00004cc9  HardFault_Handler              
00004cc9  MemManage_Handler              
00004cc9  NMI_Handler                    
00004cc9  PCM_IRQHandler                 
00004cc9  PORT1_IRQHandler               
00004cc9  PORT2_IRQHandler               
00004cc9  PORT3_IRQHandler               
00004cc9  PORT4_IRQHandler               
00004cc9  PORT5_IRQHandler               
00004cc9  PORT6_IRQHandler               
00004cc9  PSS_IRQHandler                 
00004cc9  PendSV_Handler                 
00004cc9  RTC_C_IRQHandler               
00004cc9  SVC_Handler                    
00004cc9  SysTick_Handler                
00004cc9  T32_INT1_IRQHandler            
00004cc9  T32_INT2_IRQHandler            
00004cc9  T32_INTC_IRQHandler            
00004cc9  TA0_0_IRQHandler               
00004cc9  TA0_N_IRQHandler               
00004cc9  TA1_N_IRQHandler               
00004cc9  TA2_0_IRQHandler               
00004cc9  TA2_N_IRQHandler               
00004cc9  UsageFault_Handler             
00004cc9  WDT_A_IRQHandler               
00004ccb  __TI_zero_init                 
00004cd7  malloc                         
00004cdf  _system_pre_init               
00004ce3  C$$EXIT                        
00004ce3  abort                          
00004ce6  SinTab2                        
00006ce6  SinTab                         
00007bd4  __TI_Handler_Table_Base        
00007be0  __TI_Handler_Table_Limit       
00007be8  __TI_CINIT_Base                
00007bf8  __TI_CINIT_Limit               
20000000  __start___llvm_prf_cnts        
20000000  __stop___llvm_prf_cnts         
20000000  buffer                         
20000400  __CIOBUF_                      
20000520  __TI_tmpnams                   
200005c0  Messageb                       
200005c8  parmbuf                        
200005d0  Error                          
200005d4  L                              
200005d8  LastLeftSteps                  
200005dc  LastRightSteps                 
200005e0  LeftSteps                      
200005e4  Lr                             
200005e8  Messageindexb                  
200005ec  MyTheta                        
200005f0  MyX                            
200005f4  MyY                            
200005f8  R                              
200005fc  RightSteps                     
20000600  Robottheta                     
20000604  Robotx                         
20000608  Roboty                         
2000060c  Rr                             
20000610  TimerA1Task                    
20000614  TotalLeftSteps                 
20000618  TotalRightSteps                
2000061c  badCount                       
20000620  desiredTh                      
20000624  desiredX                       
20000628  desiredY                       
2000062c  dtheta                         
20000630  dz                             
20000634  goal                           
20000638  lastgoal                       
2000063c  result                         
20000640  rotation                       
20000644  vccstate                       
20000648  LeftTach                       
2000064a  RightTach                      
2000064c  StartX                         
2000064e  StartY                         
20000650  Tachometer_FirstLeftTime       
20000652  Tachometer_FirstRightTime      
20000654  Tachometer_SecondLeftTime      
20000656  Tachometer_SecondRightTime     
20000658  Action                         
20000659  Goal                           
2000065a  LeftDir                        
2000065b  RightDir                       
20000660  _sys_memory                    
20000a60  _ftable                        
20000b50  _device                        
20000bc8  _stream                        
20000c18  ClockFrequency                 
20000c1c  Prewait                        
20000c20  CPMwait                        
20000c24  Postwait                       
20000c28  IFlags                         
20000c2c  Crystalstable                  
20000c30  __TI_ft_end                    
20000c34  __aeabi_stdin                  
20000c38  __aeabi_stdout                 
20000c3c  __aeabi_stderr                 
20000c40  __TI_cleanup_ptr               
20000c44  __TI_dtors_ptr                 
20000c48  __TI_enable_exit_profile_output
20000c4c  CaptureTask0                   
20000c50  CaptureTask1                   
20000c54  CaptureTask2                   
20000c58  Tachometer_RightSteps          
20000c5c  Tachometer_LeftSteps           
20000c60  Tachometer_RightDir            
20000c61  Tachometer_LeftDir             
20000c64  _lock                          
20000c68  _unlock                        
20000c74  MotorFast                      
20000c78  MotorSlow                      
20000c7c  CurrentX                       
20000c7e  CurrentY                       
20000c8c  SystemCoreClock                
2000fe00  __stack                        
20010000  __STACK_END                    
4000480c  WDTCTL_SYM                     
ffffffff  __TI_pprof_out_hndl            
ffffffff  __TI_prof_data_size            
ffffffff  __TI_prof_data_start           
ffffffff  __binit__                      
ffffffff  __c_args__                     
ffffffff  binit                          
UNDEFED   __mpu_init                     
UNDEFED   _system_post_cinit             

[355 symbols]
