******************************************************************************
                  TI ARM Linker PC v20.2.1                     
******************************************************************************
>> Linked Thu Dec  3 21:32:59 2020

OUTPUT FILE NAME:   <Lab17_Control.out>
ENTRY POINT SYMBOL: "_c_int00_noargs"  address: 000049d5


MEMORY CONFIGURATION

         name            origin    length      used     unused   attr    fill
----------------------  --------  ---------  --------  --------  ----  --------
  MAIN                  00000000   00040000  00004e96  0003b16a  R  X
  INFO                  00200000   00004000  00000000  00004000  R  X
  SRAM_CODE             01000000   00010000  00003cd8  0000c328  RW X
  SRAM_DATA             20000000   00010000  00003cd8  0000c328  RW  


SEGMENT ALLOCATION MAP

run origin  load origin   length   init length attrs members
----------  ----------- ---------- ----------- ----- -------
00000000    00000000    00004e98   00004e98    r-x
  00000000    00000000    000000e4   000000e4    r-- .intvecs
  000000e4    000000e4    00004ad2   00004ad2    r-x .text
  00004bb8    00004bb8    00000228   00000228    r-- .const
  00004de0    00004de0    000000b8   000000b8    r-- .cinit
20000000    20000000    00003adc   00000000    rw-
  20000000    20000000    0000348c   00000000    rw- .bss
  20003490    20003490    00000400   00000000    rw- .sysmem
  20003890    20003890    0000024c   00000000    rw- .data
2000fe00    2000fe00    00000200   00000000    rw-
  2000fe00    2000fe00    00000200   00000000    rw- .stack


SECTION ALLOCATION MAP

 output                                  attributes/
section   page    origin      length       input sections
--------  ----  ----------  ----------   ----------------
.intvecs   0    00000000    000000e4     
                  00000000    000000e4     startup_msp432p401r_ccs.obj (.intvecs:retain)

.text      0    000000e4    00004ad2     
                  000000e4    00000bd0     Nokia5110.obj (.text)
                  00000cb4    00000968     Lab17_Control.obj (.text)
                  0000161c    000006e0     UART0.obj (.text)
                  00001cfc    000006c8     TExaS.obj (.text)
                  000023c4    00000420     PWM.obj (.text)
                  000027e4    000003a0     LPF.obj (.text)
                  00002b84    0000032c     ADC14.obj (.text)
                  00002eb0    0000032c     system_msp432p401r.obj (.text)
                  000031dc    00000240     Reflectance.obj (.text)
                  0000341c    000001e0     Clock.obj (.text)
                  000035fc    00000194     Motor.obj (.text)
                  00003790    0000013c     Tachometer.obj (.text)
                  000038cc    00000128     TA3InputCapture.obj (.text)
                  000039f4    0000010c     rtsv7M4_T_le_v4SPD16_eabi.lib : fopen.c.obj (.text:_openfile)
                  00003b00    00000108                                   : memory.c.obj (.text:aligned_alloc)
                  00003c08    000000f4     LaunchPad.obj (.text)
                  00003cfc    000000e4     rtsv7M4_T_le_v4SPD16_eabi.lib : memory.c.obj (.text:free)
                  00003de0    000000dc                                   : setvbuf.c.obj (.text:setvbuf)
                  00003ebc    000000bc                                   : open.c.obj (.text:open)
                  00003f78    000000b8                                   : add_device.c.obj (.text:add_device)
                  00004030    000000a4     TimerA1.obj (.text)
                  000040d4    0000009c     rtsv7M4_T_le_v4SPD16_eabi.lib : fopen.c.obj (.text:fopen)
                  00004170    0000009c                                   : memcpy_t2.asm.obj (.text)
                  0000420c    00000084     IRDistance.obj (.text)
                  00004290    00000080     Bump.obj (.text)
                  00004310    0000007a     rtsv7M4_T_le_v4SPD16_eabi.lib : memset_t2.asm.obj (.text)
                  0000438a    00000002                                   : _lock.c.obj (.text:_nop)
                  0000438c    00000074                                   : fclose.c.obj (.text:__TI_closefile)
                  00004400    00000070                                   : memory.c.obj (.text:split)
                  00004470    0000006c                                   : hostrename.c.obj (.text:HOSTrename)
                  000044dc    00000068                                   : hostlseek.c.obj (.text:HOSTlseek)
                  00004544    00000068                                   : copy_decompress_lzss.c.obj (.text:decompress:lzss:__TI_decompress_lzss)
                  000045ac    00000060                                   : hostopen.c.obj (.text:HOSTopen)
                  0000460c    0000005c                                   : close.c.obj (.text:close)
                  00004668    00000058                                   : hostread.c.obj (.text:HOSTread)
                  000046c0    00000058                                   : hostwrite.c.obj (.text:HOSTwrite)
                  00004718    0000004c                                   : fflush.c.obj (.text:__TI_doflush)
                  00004764    00000048                                   : exit.c.obj (.text:exit)
                  000047ac    00000044                                   : hostclose.c.obj (.text:HOSTclose)
                  000047f0    00000044                                   : hostunlink.c.obj (.text:HOSTunlink)
                  00004834    00000044                                   : autoinit.c.obj (.text:__TI_auto_init_nobinit_nopinit:__TI_auto_init_nobinit_nopinit)
                  00004878    00000044                                   : getdevice.c.obj (.text:getdevice)
                  000048bc    00000040     SysTickInts.obj (.text)
                  000048fc    00000038     rtsv7M4_T_le_v4SPD16_eabi.lib : trgmsg.c.obj (.text:__TI_writemsg)
                  00004934    00000036                                   : strncpy.c.obj (.text:strncpy)
                  0000496a    00000002     --HOLE-- [fill = 0]
                  0000496c    00000034                                   : fopen.c.obj (.text:__TI_cleanup)
                  000049a0    00000034                                   : trgmsg.c.obj (.text:__TI_readmsg)
                  000049d4    00000034                                   : boot_cortex_m.c.obj (.text:_c_int00_noargs:_c_int00_noargs)
                  00004a08    00000034                                   : fopen.c.obj (.text:freopen)
                  00004a3c    00000030                                   : getdevice.c.obj (.text:finddevice)
                  00004a6c    0000002c                                   : unlink.c.obj (.text:unlink)
                  00004a98    00000028                                   : memory.c.obj (.text:free_list_insert)
                  00004ac0    00000028                                   : write.c.obj (.text:write)
                  00004ae8    00000024     CortexM.obj (.text)
                  00004b0c    0000001c     rtsv7M4_T_le_v4SPD16_eabi.lib : memory.c.obj (.text:free_list_remove)
                  00004b28    00000018                                   : strcmp.c.obj (.text:strcmp)
                  00004b40    00000016                                   : strchr.c.obj (.text:strchr)
                  00004b56    00000014                                   : strcpy.c.obj (.text:strcpy)
                  00004b6a    00000014                                   : strlen.c.obj (.text:strlen)
                  00004b7e    0000000e                                   : copy_decompress_none.c.obj (.text:decompress:none:__TI_decompress_none)
                  00004b8c    0000000e     startup_msp432p401r_ccs.obj (.text)
                  00004b9a    0000000c     rtsv7M4_T_le_v4SPD16_eabi.lib : copy_zero_init.c.obj (.text:decompress:ZI:__TI_zero_init)
                  00004ba6    00000008                                   : memory.c.obj (.text:malloc)
                  00004bae    00000004                                   : pre_init.c.obj (.text:_system_pre_init)
                  00004bb2    00000004                                   : exit.c.obj (.text:abort:abort)

.const     0    00004bb8    00000228     
                  00004bb8    000001e0     Nokia5110.obj (.const:ASCII)
                  00004d98    00000020     Reflectance.obj (.const:Mask)
                  00004db8    00000020     Reflectance.obj (.const:Weight)
                  00004dd8    00000008     Nokia5110.obj (.const:.string:Masks)

.cinit     0    00004de0    000000b8     
                  00004de0    0000008d     (.cinit..data.load) [load image, compression = lzss]
                  00004e6d    00000003     --HOLE-- [fill = 0]
                  00004e70    0000000c     (__TI_handler_table)
                  00004e7c    00000004     --HOLE-- [fill = 0]
                  00004e80    00000008     (.cinit..bss.load) [load image, compression = zero_init]
                  00004e88    00000010     (__TI_cinit_table)

.init_array 
*          0    00000000    00000000     UNINITIALIZED

.binit     0    00000000    00000000     

.bss       0    20000000    0000348c     UNINITIALIZED
                  20000000    00001000     (.common:x)
                  20001000    00001000     (.common:x2)
                  20002000    00001000     (.common:x3)
                  20003000    000001f8     (.common:Screen)
                  200031f8    00000120     rtsv7M4_T_le_v4SPD16_eabi.lib : trgmsg.c.obj (.bss:_CIOBUF_)
                  20003318    000000a0     (.common:__TI_tmpnams)
                  200033b8    00000014     (.common:LeftTach)
                  200033cc    00000014     (.common:RightTach)
                  200033e0    00000008     (.common:Messageb)
                  200033e8    00000008     (.common:parmbuf)
                  200033f0    00000004     (.common:ADCflag)
                  200033f4    00000004     (.common:ActualSpeedL)
                  200033f8    00000004     (.common:ActualSpeedR)
                  200033fc    00000004     (.common:Center)
                  20003400    00000004     (.common:ControllerFlag)
                  20003404    00000004     (.common:Error)
                  20003408    00000004     (.common:ErrorL)
                  2000340c    00000004     (.common:ErrorR)
                  20003410    00000004     (.common:I1)
                  20003414    00000004     (.common:LPFSum)
                  20003418    00000004     (.common:LPFSum2)
                  2000341c    00000004     (.common:LPFSum3)
                  20003420    00000004     (.common:Left)
                  20003424    00000004     (.common:LeftSteps)
                  20003428    00000004     (.common:Messageindexb)
                  2000342c    00000004     (.common:PeriodicTask2)
                  20003430    00000004     (.common:PosError)
                  20003434    00000004     (.common:Position)
                  20003438    00000004     (.common:PrevErrorL)
                  2000343c    00000004     (.common:PrevErrorR)
                  20003440    00000004     (.common:Pt)
                  20003444    00000004     (.common:Pt2)
                  20003448    00000004     (.common:Pt3)
                  2000344c    00000004     (.common:Right)
                  20003450    00000004     (.common:RightSteps)
                  20003454    00000004     (.common:Size)
                  20003458    00000004     (.common:Time)
                  2000345c    00000004     (.common:TimerA1Task)
                  20003460    00000004     (.common:UL)
                  20003464    00000004     (.common:UR)
                  20003468    00000004     (.common:nc)
                  2000346c    00000004     (.common:nl)
                  20003470    00000004     (.common:nr)
                  20003474    00000004     (.common:u1)
                  20003478    00000004     (.common:u2)
                  2000347c    00000004     (.common:u3)
                  20003480    00000002     (.common:Tachometer_FirstLeftTime)
                  20003482    00000002     (.common:Tachometer_FirstRightTime)
                  20003484    00000002     (.common:Tachometer_SecondLeftTime)
                  20003486    00000002     (.common:Tachometer_SecondRightTime)
                  20003488    00000001     (.common:LeftDir)
                  20003489    00000001     (.common:LineData)
                  2000348a    00000001     (.common:LogicData)
                  2000348b    00000001     (.common:RightDir)

.sysmem    0    20003490    00000400     UNINITIALIZED
                  20003490    00000010     rtsv7M4_T_le_v4SPD16_eabi.lib : memory.c.obj (.sysmem)
                  200034a0    000003f0     --HOLE--

.data      0    20003890    0000024c     UNINITIALIZED
                  20003890    000000f0     rtsv7M4_T_le_v4SPD16_eabi.lib : defs.c.obj (.data:_ftable)
                  20003980    00000078                                   : host_device.c.obj (.data:_device)
                  200039f8    00000050                                   : host_device.c.obj (.data:_stream)
                  20003a48    00000020     Lab17_Control.obj (.data)
                  20003a68    00000018     Clock.obj (.data)
                  20003a80    00000010     rtsv7M4_T_le_v4SPD16_eabi.lib : defs.c.obj (.data)
                  20003a90    0000000c                                   : exit.c.obj (.data:$O1$$)
                  20003a9c    0000000c     TExaS.obj (.data)
                  20003aa8    0000000a     Tachometer.obj (.data)
                  20003ab2    00000002     --HOLE--
                  20003ab4    00000008     rtsv7M4_T_le_v4SPD16_eabi.lib : _lock.c.obj (.data:$O1$$)
                  20003abc    00000008                                   : memory.c.obj (.data:$O1$$)
                  20003ac4    00000008     TA3InputCapture.obj (.data)
                  20003acc    00000004     rtsv7M4_T_le_v4SPD16_eabi.lib : add_device.c.obj (.data)
                  20003ad0    00000004                                   : fopen.c.obj (.data)
                  20003ad4    00000004                                   : open.c.obj (.data)
                  20003ad8    00000004     system_msp432p401r.obj (.data)

.stack     0    2000fe00    00000200     UNINITIALIZED
                  2000fe00    00000004     rtsv7M4_T_le_v4SPD16_eabi.lib : boot_cortex_m.c.obj (.stack)
                  2000fe04    000001fc     --HOLE--

__llvm_prf_cnts 
*          0    20000000    00000000     UNINITIALIZED

MODULE SUMMARY

       Module                        code    ro data   rw data
       ------                        ----    -------   -------
    ..\
       UART0.obj                     1760    0         24     
    +--+-----------------------------+-------+---------+---------+
       Total:                        1760    0         24     
                                                              
    .\
       LPF.obj                       928     0         24664  
       Nokia5110.obj                 3024    488       1008   
       Lab17_Control.obj             2408    0         326    
       TExaS.obj                     1736    0         34     
       PWM.obj                       1056    0         0      
       system_msp432p401r.obj        812     0         8      
       ADC14.obj                     812     0         0      
       Reflectance.obj               576     64        0      
       Clock.obj                     480     0         48     
       Motor.obj                     404     0         0      
       Tachometer.obj                316     0         36     
       TA3InputCapture.obj           296     0         16     
       LaunchPad.obj                 244     0         0      
       startup_msp432p401r_ccs.obj   14      228       0      
       TimerA1.obj                   164     0         8      
       IRDistance.obj                132     0         0      
       Bump.obj                      128     0         0      
       SysTickInts.obj               64      0         0      
       CortexM.obj                   36      0         0      
    +--+-----------------------------+-------+---------+---------+
       Total:                        13630   780       26148  
                                                              
    C:\ti\ccs1010\ccs\tools\compiler\ti-cgt-arm_20.2.1.LTS\lib\rtsv7M4_T_le_v4SPD16_eabi.lib
       defs.c.obj                    0       0         832    
       memory.c.obj                  680     0         16     
       trgmsg.c.obj                  108     0         576    
       fopen.c.obj                   528     0         8      
       host_device.c.obj             0       0         400    
       setvbuf.c.obj                 220     0         0      
       open.c.obj                    188     0         8      
       add_device.c.obj              184     0         8      
       memcpy_t2.asm.obj             156     0         0      
       memset_t2.asm.obj             122     0         0      
       fclose.c.obj                  116     0         0      
       getdevice.c.obj               116     0         0      
       hostopen.c.obj                96      0         16     
       hostrename.c.obj              108     0         0      
       copy_decompress_lzss.c.obj    104     0         0      
       hostlseek.c.obj               104     0         0      
       exit.c.obj                    76      0         24     
       close.c.obj                   92      0         0      
       hostread.c.obj                88      0         0      
       hostwrite.c.obj               88      0         0      
       fflush.c.obj                  76      0         0      
       autoinit.c.obj                68      0         0      
       hostclose.c.obj               68      0         0      
       hostunlink.c.obj              68      0         0      
       strncpy.c.obj                 54      0         0      
       boot_cortex_m.c.obj           52      0         0      
       unlink.c.obj                  44      0         0      
       write.c.obj                   40      0         0      
       strcmp.c.obj                  24      0         0      
       strchr.c.obj                  22      0         0      
       strcpy.c.obj                  20      0         0      
       strlen.c.obj                  20      0         0      
       _lock.c.obj                   2       0         16     
       copy_decompress_none.c.obj    14      0         0      
       copy_zero_init.c.obj          12      0         0      
       pre_init.c.obj                4       0         0      
    +--+-----------------------------+-------+---------+---------+
       Total:                        3762    0         1904   
                                                              
       Heap:                         0       0         2048   
       Stack:                        0       0         1024   
       Linker Generated:             0       177       0      
    +--+-----------------------------+-------+---------+---------+
       Grand Total:                  19152   957       31148  


LINKER GENERATED COPY TABLES

__TI_cinit_table @ 00004e88 records: 2, size/record: 8, table size: 16
	.data: load addr=00004de0, load size=0000008d bytes, run addr=20003890, run size=0000024c bytes, compression=lzss
	.bss: load addr=00004e80, load size=00000008 bytes, run addr=20000000, run size=0000348c bytes, compression=zero_init


LINKER GENERATED HANDLER TABLE

__TI_handler_table @ 00004e70 records: 3, size/record: 4, table size: 12
	index: 0, handler: __TI_decompress_lzss
	index: 1, handler: __TI_decompress_none
	index: 2, handler: __TI_zero_init


GLOBAL SYMBOLS: SORTED ALPHABETICALLY BY Name 

address   name                                   
-------   ----                                   
00002dcd  ADC0_InitSWTriggerCh12                 
00002c81  ADC0_InitSWTriggerCh17_14_16           
00002dd3  ADC0_InitSWTriggerCh19                 
00002d31  ADC0_InitSWTriggerCh21_22_23           
00002e43  ADC0_InitSWTriggerCh23                 
00002b85  ADC0_InitSWTriggerCh6                  
00002bf5  ADC0_InitSWTriggerCh67                 
00004b99  ADC14_IRQHandler                       
00002dcf  ADC_In12                               
00002cf1  ADC_In17_14_16                         
00002e23  ADC_In19                               
00002d8d  ADC_In21_22_23                         
00002e45  ADC_In23                               
00002bd5  ADC_In6                                
00002c4b  ADC_In67                               
00002109  ADC_Init                               
200033f0  ADCflag                                
00004b99  AES256_IRQHandler                      
200033f4  ActualSpeedL                           
200033f8  ActualSpeedR                           
00004291  Bump_Init                              
000042c5  Bump_Read                              
00004b99  BusFault_Handler                       
00004bb3  C$$EXIT                                
0000492b  C$$IO$$                                
00004b99  COMP_E0_IRQHandler                     
00004b99  COMP_E1_IRQHandler                     
20003a70  CPMwait                                
00004b99  CS_IRQHandler                          
20003ac4  CaptureTask0                           
20003ac8  CaptureTask2                           
200033fc  Center                                 
00004235  CenterConvert                          
20003a68  ClockFrequency                         
00003571  Clock_Delay1ms                         
00003547  Clock_Delay1us                         
00003533  Clock_GetFreq                          
0000341d  Clock_Init48MHz                        
00000e29  Controller1                            
000014b1  Controller3                            
20003400  ControllerFlag                         
20003a7c  Crystalstable                          
00004b99  DMA_ERR_IRQHandler                     
00004b99  DMA_INT0_IRQHandler                    
00004b99  DMA_INT1_IRQHandler                    
00004b99  DMA_INT2_IRQHandler                    
00004b99  DMA_INT3_IRQHandler                    
00004b99  DebugMon_Handler                       
00004b99  Default_Handler                        
00004ae9  DisableInterrupts                      
00004b99  EUSCIA0_IRQHandler                     
00004b99  EUSCIA1_IRQHandler                     
00004b99  EUSCIA2_IRQHandler                     
00004b99  EUSCIA3_IRQHandler                     
00004b99  EUSCIB0_IRQHandler                     
00004b99  EUSCIB1_IRQHandler                     
00004b99  EUSCIB2_IRQHandler                     
00004b99  EUSCIB3_IRQHandler                     
00004aef  EnableInterrupts                       
00004aff  EndCritical                            
20003404  Error                                  
20003408  ErrorL                                 
2000340c  ErrorR                                 
00004b99  FLCTL_IRQHandler                       
00004b99  FPU_IRQHandler                         
000047ad  HOSTclose                              
000044dd  HOSTlseek                              
000045ad  HOSTopen                               
00004669  HOSTread                               
00004471  HOSTrename                             
000047f1  HOSTunlink                             
000046c1  HOSTwrite                              
00004b99  HardFault_Handler                      
20003410  I1                                     
20003a78  IFlags                                 
000011d5  IRsampling                             
20003a4c  Ka                                     
20003a50  Kb                                     
20003a5c  Kp2                                    
20003a60  Kp3                                    
00000d6d  LCDClear1                              
00000ff5  LCDClear2                              
000013cd  LCDClear3                              
00000d7f  LCDOut1                                
000010f9  LCDOut2                                
00001443  LCDOut3                                
20003414  LPFSum                                 
20003418  LPFSum2                                
2000341c  LPFSum3                                
000028f9  LPF_Calc                               
000029a1  LPF_Calc2                              
00002a65  LPF_Calc3                              
00002839  LPF_Calc_old                           
0000289b  LPF_Init                               
0000294d  LPF_Init2                              
00002a03  LPF_Init3                              
000027e5  LPF_Init_old                           
00003c09  LaunchPad_Init                         
00003c79  LaunchPad_Input                        
00003c93  LaunchPad_LED                          
00003cb1  LaunchPad_Output                       
20003420  Left                                   
0000420d  LeftConvert                            
20003488  LeftDir                                
20003424  LeftSteps                              
200033b8  LeftTach                               
20003489  LineData                               
00001cfd  LogicAnalyzer                          
00001d07  LogicAnalyzer_P1                       
00001ddd  LogicAnalyzer_P10                      
00001d15  LogicAnalyzer_P2                       
00001deb  LogicAnalyzer_P27_P26_P82_P92_P104_P105
00001d23  LogicAnalyzer_P2_7654                  
00001d33  LogicAnalyzer_P3                       
00001d41  LogicAnalyzer_P4                       
00001d5f  LogicAnalyzer_P4_765320                
00001d4f  LogicAnalyzer_P4_765432                
00001d97  LogicAnalyzer_P5                       
00001e23  LogicAnalyzer_P55_P54_P27_P26_P37_P36  
00001da5  LogicAnalyzer_P6                       
00001db3  LogicAnalyzer_P7                       
00001dc1  LogicAnalyzer_P8                       
00001dcf  LogicAnalyzer_P9                       
2000348a  LogicData                              
00004d98  Mask                                   
00004dd8  Masks                                  
00002acd  Median                                 
00004b99  MemManage_Handler                      
200033e0  Messageb                               
20003428  Messageindexb                          
20003a48  Mode                                   
00003735  Motor_Backward                         
0000366d  Motor_Forward                          
000035fd  Motor_Init                             
000036ef  Motor_Left                             
000036a9  Motor_Right                            
00003649  Motor_Stop                             
00004b99  NMI_Handler                            
000009e3  Nokia5110_Clear                        
00000c2d  Nokia5110_ClearBuffer                  
00000c61  Nokia5110_ClrPxl                       
00000c57  Nokia5110_DisplayBuffer                
00000a0f  Nokia5110_DrawFullImage                
0000013b  Nokia5110_Init                         
000001e5  Nokia5110_OutChar                      
0000085b  Nokia5110_OutHex7                      
0000047d  Nokia5110_OutSDec                      
0000076d  Nokia5110_OutSFix1                     
00000225  Nokia5110_OutString                    
00000251  Nokia5110_OutUDec                      
000008b9  Nokia5110_OutUDec16                    
00000951  Nokia5110_OutUDec2                     
000006df  Nokia5110_OutUFix1                     
00000891  Nokia5110_OutUHex7                     
00000a49  Nokia5110_PrintBMP                     
000009a7  Nokia5110_SetCursor                    
00000c87  Nokia5110_SetPxl                       
00004b99  PCM_IRQHandler                         
00004b99  PORT1_IRQHandler                       
00004b99  PORT2_IRQHandler                       
00004b99  PORT3_IRQHandler                       
00004b99  PORT4_IRQHandler                       
00004b99  PORT5_IRQHandler                       
00004b99  PORT6_IRQHandler                       
00004b99  PSS_IRQHandler                         
000024af  PWM_Duty1                              
000024cf  PWM_Duty2                              
00002573  PWM_Duty3                              
00002593  PWM_Duty4                              
000023c5  PWM_Init1                              
0000242b  PWM_Init12                             
000024ef  PWM_Init34                             
000026db  PWM_RobotArmDuty0                      
00002701  PWM_RobotArmDuty1                      
00002727  PWM_RobotArmDuty2                      
000026fb  PWM_RobotArmGetDuty0                   
00002721  PWM_RobotArmGetDuty1                   
00002747  PWM_RobotArmGetDuty2                   
000025b3  PWM_RobotArmInit                       
00000cb5  Pause3                                 
00004b99  PendSV_Handler                         
2000342c  PeriodicTask2                          
00001ed1  PeriodicTask2_Init                     
00001f4b  PeriodicTask2_Stop                     
20003430  PosError                               
20003434  Position                               
20003a74  Postwait                               
20003438  PrevErrorL                             
2000343c  PrevErrorR                             
20003a6c  Prewait                                
00000f65  Program17_1                            
00001315  Program17_2                            
00001545  Program17_3                            
20003440  Pt                                     
20003444  Pt2                                    
20003448  Pt3                                    
00004b99  RTC_C_IRQHandler                       
000032db  Reflectance_Center                     
000033b3  Reflectance_End                        
000031dd  Reflectance_Init                       
00003305  Reflectance_Position                   
00003251  Reflectance_Read                       
00003377  Reflectance_Start                      
00004b8d  Reset_Handler                          
2000344c  Right                                  
0000425d  RightConvert                           
2000348b  RightDir                               
20003450  RightSteps                             
200033cc  RightTach                              
00004b99  SVC_Handler                            
00001e4d  Scope                                  
20003000  Screen                                 
20003a58  SetPoint                               
20003454  Size                                   
00004af5  StartCritical                          
00001231  SysTick_Handler                        
00001231  SysTick_Handler                        
000048bd  SysTick_Init                           
20003ad8  SystemCoreClock                        
00002eb1  SystemCoreClockUpdate                  
00003125  SystemInit                             
00001f3b  T32_INT1_IRQHandler                    
00001f3b  T32_INT1_IRQHandler                    
00004b99  T32_INT2_IRQHandler                    
00004b99  T32_INTC_IRQHandler                    
00004b99  TA0_0_IRQHandler                       
00004b99  TA0_N_IRQHandler                       
000040a3  TA1_0_IRQHandler                       
000040a3  TA1_0_IRQHandler                       
00004b99  TA1_N_IRQHandler                       
00004b99  TA2_0_IRQHandler                       
00004b99  TA2_N_IRQHandler                       
0000398b  TA3_0_IRQHandler                       
0000398b  TA3_0_IRQHandler                       
000039a5  TA3_N_IRQHandler                       
000039a5  TA3_N_IRQHandler                       
0000209d  TExaS_Clear0                           
000020a9  TExaS_Clear1                           
000020bd  TExaS_Clear2                           
000020c9  TExaS_Clear3                           
000020d5  TExaS_Clear4                           
000020d7  TExaS_Clear5                           
000020e3  TExaS_Clear6                           
000021cd  TExaS_Init                             
20003aa0  TExaS_ScopeErrConflict                 
20003a9c  TExaS_ScopeErrLostData                 
20003aa4  TExaS_ScopeWrnReconfig                 
0000202b  TExaS_Set                              
00002043  TExaS_Set0                             
0000204f  TExaS_Set1                             
0000205b  TExaS_Set2                             
00002067  TExaS_Set3                             
00002073  TExaS_Set4                             
00002075  TExaS_Set5                             
0000208d  TExaS_Set6                             
00002359  TExaS_Stop                             
00001fe1  TExaS_Task0                            
00001fed  TExaS_Task1                            
00001ff9  TExaS_Task2                            
00002005  TExaS_Task3                            
00002011  TExaS_Task4                            
00002013  TExaS_Task5                            
0000201f  TExaS_Task6                            
20003480  Tachometer_FirstLeftTime               
20003482  Tachometer_FirstRightTime              
00003847  Tachometer_Get                         
0000381d  Tachometer_Init                        
20003ab1  Tachometer_LeftDir                     
20003aac  Tachometer_LeftSteps                   
20003ab0  Tachometer_RightDir                    
20003aa8  Tachometer_RightSteps                  
20003484  Tachometer_SecondLeftTime              
20003486  Tachometer_SecondRightTime             
0000010f  Testcommandwrite                       
20003458  Time                                   
2000345c  TimerA1Task                            
00004031  TimerA1_Init                           
0000408f  TimerA1_Stop                           
000038d9  TimerA3Capture_Init                    
00001663  UART0_InChar                           
00001b0d  UART0_InString                         
000016ad  UART0_InUDec                           
000019c1  UART0_InUHex                           
0000161d  UART0_Init                             
00001c6f  UART0_Initprintf                       
00001673  UART0_OutChar                          
00001761  UART0_OutSDec                          
0000168f  UART0_OutString                        
00001731  UART0_OutUDec                          
000018d5  UART0_OutUDec4                         
0000191d  UART0_OutUDec5                         
0000194f  UART0_OutUFix1                         
00001977  UART0_OutUFix2                         
00001a85  UART0_OutUHex                          
00001af1  UART0_OutUHex2                         
00001fb5  UART_InChar                            
00001f5b  UART_Init                              
00001fc5  UART_OutChar                           
20003460  UL                                     
20003464  UR                                     
00004b99  UsageFault_Handler                     
4000480c  WDTCTL_SYM                             
00004b99  WDT_A_IRQHandler                       
00004b07  WaitForInterrupt                       
00004db8  Weight                                 
200031f8  __CIOBUF_                              
20010000  __STACK_END                            
00000200  __STACK_SIZE                           
00000400  __SYSMEM_SIZE                          
00004e88  __TI_CINIT_Base                        
00004e98  __TI_CINIT_Limit                       
00004e70  __TI_Handler_Table_Base                
00004e7c  __TI_Handler_Table_Limit               
00004835  __TI_auto_init_nobinit_nopinit         
0000496d  __TI_cleanup                           
20003a90  __TI_cleanup_ptr                       
0000438d  __TI_closefile                         
00004545  __TI_decompress_lzss                   
00004b7f  __TI_decompress_none                   
00004719  __TI_doflush                           
20003a94  __TI_dtors_ptr                         
20003a98  __TI_enable_exit_profile_output        
20003a80  __TI_ft_end                            
ffffffff  __TI_pprof_out_hndl                    
ffffffff  __TI_prof_data_size                    
ffffffff  __TI_prof_data_start                   
000049a1  __TI_readmsg                           
00000000  __TI_static_base__                     
20003318  __TI_tmpnams                           
000048fd  __TI_writemsg                          
00004b9b  __TI_zero_init                         
00004311  __aeabi_memclr                         
00004311  __aeabi_memclr4                        
00004311  __aeabi_memclr8                        
00004171  __aeabi_memcpy                         
00004171  __aeabi_memcpy4                        
00004171  __aeabi_memcpy8                        
00004313  __aeabi_memset                         
00004313  __aeabi_memset4                        
00004313  __aeabi_memset8                        
20003a8c  __aeabi_stderr                         
20003a84  __aeabi_stdin                          
20003a88  __aeabi_stdout                         
ffffffff  __binit__                              
ffffffff  __c_args__                             
UNDEFED   __mpu_init                             
2000fe00  __stack                                
20000000  __start___llvm_prf_cnts                
20000000  __stop___llvm_prf_cnts                 
000049d5  _c_int00_noargs                        
20003980  _device                                
20003890  _ftable                                
20003ab4  _lock                                  
0000438b  _nop                                   
200039f8  _stream                                
20003490  _sys_memory                            
UNDEFED   _system_post_cinit                     
00004baf  _system_pre_init                       
20003ab8  _unlock                                
00004bb3  abort                                  
00003f79  add_device                             
00003b01  aligned_alloc                          
00000de3  avg                                    
ffffffff  binit                                  
20003a64  change                                 
0000460d  close                                  
00003539  delay                                  
00004765  exit                                   
00001ba1  ferror                                 
00001b87  fgetc                                  
00004a3d  finddevice                             
000040d5  fopen                                  
00003cfd  free                                   
00004a09  freopen                                
00004879  getdevice                              
20003a54  i                                      
00000000  interruptVectors                       
000015b9  main                                   
00004ba7  malloc                                 
00003b01  memalign                               
00004171  memcpy                                 
00004319  memset                                 
20003468  nc                                     
2000346c  nl                                     
20003470  nr                                     
00003ebd  open                                   
00001ac9  outnibble                              
200033e8  parmbuf                                
00004a6d  remove                                 
00003de1  setvbuf                                
00004b41  strchr                                 
00004b29  strcmp                                 
00004b57  strcpy                                 
00004b6b  strlen                                 
00004935  strncpy                                
000038cd  ta3dummy                               
000037d7  tachometerLeftInt                      
00003791  tachometerRightInt                     
20003474  u1                                     
20003478  u2                                     
2000347c  u3                                     
00001bc7  uart_close                             
00001c45  uart_lseek                             
00001bb7  uart_open                              
00001bd3  uart_read                              
00001c61  uart_rename                            
00001c55  uart_unlink                            
00001c03  uart_write                             
00004a6d  unlink                                 
00004ac1  write                                  
20000000  x                                      
20001000  x2                                     
20002000  x3                                     


GLOBAL SYMBOLS: SORTED BY Symbol Address 

address   name                                   
-------   ----                                   
00000000  __TI_static_base__                     
00000000  interruptVectors                       
0000010f  Testcommandwrite                       
0000013b  Nokia5110_Init                         
000001e5  Nokia5110_OutChar                      
00000200  __STACK_SIZE                           
00000225  Nokia5110_OutString                    
00000251  Nokia5110_OutUDec                      
00000400  __SYSMEM_SIZE                          
0000047d  Nokia5110_OutSDec                      
000006df  Nokia5110_OutUFix1                     
0000076d  Nokia5110_OutSFix1                     
0000085b  Nokia5110_OutHex7                      
00000891  Nokia5110_OutUHex7                     
000008b9  Nokia5110_OutUDec16                    
00000951  Nokia5110_OutUDec2                     
000009a7  Nokia5110_SetCursor                    
000009e3  Nokia5110_Clear                        
00000a0f  Nokia5110_DrawFullImage                
00000a49  Nokia5110_PrintBMP                     
00000c2d  Nokia5110_ClearBuffer                  
00000c57  Nokia5110_DisplayBuffer                
00000c61  Nokia5110_ClrPxl                       
00000c87  Nokia5110_SetPxl                       
00000cb5  Pause3                                 
00000d6d  LCDClear1                              
00000d7f  LCDOut1                                
00000de3  avg                                    
00000e29  Controller1                            
00000f65  Program17_1                            
00000ff5  LCDClear2                              
000010f9  LCDOut2                                
000011d5  IRsampling                             
00001231  SysTick_Handler                        
00001231  SysTick_Handler                        
00001315  Program17_2                            
000013cd  LCDClear3                              
00001443  LCDOut3                                
000014b1  Controller3                            
00001545  Program17_3                            
000015b9  main                                   
0000161d  UART0_Init                             
00001663  UART0_InChar                           
00001673  UART0_OutChar                          
0000168f  UART0_OutString                        
000016ad  UART0_InUDec                           
00001731  UART0_OutUDec                          
00001761  UART0_OutSDec                          
000018d5  UART0_OutUDec4                         
0000191d  UART0_OutUDec5                         
0000194f  UART0_OutUFix1                         
00001977  UART0_OutUFix2                         
000019c1  UART0_InUHex                           
00001a85  UART0_OutUHex                          
00001ac9  outnibble                              
00001af1  UART0_OutUHex2                         
00001b0d  UART0_InString                         
00001b87  fgetc                                  
00001ba1  ferror                                 
00001bb7  uart_open                              
00001bc7  uart_close                             
00001bd3  uart_read                              
00001c03  uart_write                             
00001c45  uart_lseek                             
00001c55  uart_unlink                            
00001c61  uart_rename                            
00001c6f  UART0_Initprintf                       
00001cfd  LogicAnalyzer                          
00001d07  LogicAnalyzer_P1                       
00001d15  LogicAnalyzer_P2                       
00001d23  LogicAnalyzer_P2_7654                  
00001d33  LogicAnalyzer_P3                       
00001d41  LogicAnalyzer_P4                       
00001d4f  LogicAnalyzer_P4_765432                
00001d5f  LogicAnalyzer_P4_765320                
00001d97  LogicAnalyzer_P5                       
00001da5  LogicAnalyzer_P6                       
00001db3  LogicAnalyzer_P7                       
00001dc1  LogicAnalyzer_P8                       
00001dcf  LogicAnalyzer_P9                       
00001ddd  LogicAnalyzer_P10                      
00001deb  LogicAnalyzer_P27_P26_P82_P92_P104_P105
00001e23  LogicAnalyzer_P55_P54_P27_P26_P37_P36  
00001e4d  Scope                                  
00001ed1  PeriodicTask2_Init                     
00001f3b  T32_INT1_IRQHandler                    
00001f3b  T32_INT1_IRQHandler                    
00001f4b  PeriodicTask2_Stop                     
00001f5b  UART_Init                              
00001fb5  UART_InChar                            
00001fc5  UART_OutChar                           
00001fe1  TExaS_Task0                            
00001fed  TExaS_Task1                            
00001ff9  TExaS_Task2                            
00002005  TExaS_Task3                            
00002011  TExaS_Task4                            
00002013  TExaS_Task5                            
0000201f  TExaS_Task6                            
0000202b  TExaS_Set                              
00002043  TExaS_Set0                             
0000204f  TExaS_Set1                             
0000205b  TExaS_Set2                             
00002067  TExaS_Set3                             
00002073  TExaS_Set4                             
00002075  TExaS_Set5                             
0000208d  TExaS_Set6                             
0000209d  TExaS_Clear0                           
000020a9  TExaS_Clear1                           
000020bd  TExaS_Clear2                           
000020c9  TExaS_Clear3                           
000020d5  TExaS_Clear4                           
000020d7  TExaS_Clear5                           
000020e3  TExaS_Clear6                           
00002109  ADC_Init                               
000021cd  TExaS_Init                             
00002359  TExaS_Stop                             
000023c5  PWM_Init1                              
0000242b  PWM_Init12                             
000024af  PWM_Duty1                              
000024cf  PWM_Duty2                              
000024ef  PWM_Init34                             
00002573  PWM_Duty3                              
00002593  PWM_Duty4                              
000025b3  PWM_RobotArmInit                       
000026db  PWM_RobotArmDuty0                      
000026fb  PWM_RobotArmGetDuty0                   
00002701  PWM_RobotArmDuty1                      
00002721  PWM_RobotArmGetDuty1                   
00002727  PWM_RobotArmDuty2                      
00002747  PWM_RobotArmGetDuty2                   
000027e5  LPF_Init_old                           
00002839  LPF_Calc_old                           
0000289b  LPF_Init                               
000028f9  LPF_Calc                               
0000294d  LPF_Init2                              
000029a1  LPF_Calc2                              
00002a03  LPF_Init3                              
00002a65  LPF_Calc3                              
00002acd  Median                                 
00002b85  ADC0_InitSWTriggerCh6                  
00002bd5  ADC_In6                                
00002bf5  ADC0_InitSWTriggerCh67                 
00002c4b  ADC_In67                               
00002c81  ADC0_InitSWTriggerCh17_14_16           
00002cf1  ADC_In17_14_16                         
00002d31  ADC0_InitSWTriggerCh21_22_23           
00002d8d  ADC_In21_22_23                         
00002dcd  ADC0_InitSWTriggerCh12                 
00002dcf  ADC_In12                               
00002dd3  ADC0_InitSWTriggerCh19                 
00002e23  ADC_In19                               
00002e43  ADC0_InitSWTriggerCh23                 
00002e45  ADC_In23                               
00002eb1  SystemCoreClockUpdate                  
00003125  SystemInit                             
000031dd  Reflectance_Init                       
00003251  Reflectance_Read                       
000032db  Reflectance_Center                     
00003305  Reflectance_Position                   
00003377  Reflectance_Start                      
000033b3  Reflectance_End                        
0000341d  Clock_Init48MHz                        
00003533  Clock_GetFreq                          
00003539  delay                                  
00003547  Clock_Delay1us                         
00003571  Clock_Delay1ms                         
000035fd  Motor_Init                             
00003649  Motor_Stop                             
0000366d  Motor_Forward                          
000036a9  Motor_Right                            
000036ef  Motor_Left                             
00003735  Motor_Backward                         
00003791  tachometerRightInt                     
000037d7  tachometerLeftInt                      
0000381d  Tachometer_Init                        
00003847  Tachometer_Get                         
000038cd  ta3dummy                               
000038d9  TimerA3Capture_Init                    
0000398b  TA3_0_IRQHandler                       
0000398b  TA3_0_IRQHandler                       
000039a5  TA3_N_IRQHandler                       
000039a5  TA3_N_IRQHandler                       
00003b01  aligned_alloc                          
00003b01  memalign                               
00003c09  LaunchPad_Init                         
00003c79  LaunchPad_Input                        
00003c93  LaunchPad_LED                          
00003cb1  LaunchPad_Output                       
00003cfd  free                                   
00003de1  setvbuf                                
00003ebd  open                                   
00003f79  add_device                             
00004031  TimerA1_Init                           
0000408f  TimerA1_Stop                           
000040a3  TA1_0_IRQHandler                       
000040a3  TA1_0_IRQHandler                       
000040d5  fopen                                  
00004171  __aeabi_memcpy                         
00004171  __aeabi_memcpy4                        
00004171  __aeabi_memcpy8                        
00004171  memcpy                                 
0000420d  LeftConvert                            
00004235  CenterConvert                          
0000425d  RightConvert                           
00004291  Bump_Init                              
000042c5  Bump_Read                              
00004311  __aeabi_memclr                         
00004311  __aeabi_memclr4                        
00004311  __aeabi_memclr8                        
00004313  __aeabi_memset                         
00004313  __aeabi_memset4                        
00004313  __aeabi_memset8                        
00004319  memset                                 
0000438b  _nop                                   
0000438d  __TI_closefile                         
00004471  HOSTrename                             
000044dd  HOSTlseek                              
00004545  __TI_decompress_lzss                   
000045ad  HOSTopen                               
0000460d  close                                  
00004669  HOSTread                               
000046c1  HOSTwrite                              
00004719  __TI_doflush                           
00004765  exit                                   
000047ad  HOSTclose                              
000047f1  HOSTunlink                             
00004835  __TI_auto_init_nobinit_nopinit         
00004879  getdevice                              
000048bd  SysTick_Init                           
000048fd  __TI_writemsg                          
0000492b  C$$IO$$                                
00004935  strncpy                                
0000496d  __TI_cleanup                           
000049a1  __TI_readmsg                           
000049d5  _c_int00_noargs                        
00004a09  freopen                                
00004a3d  finddevice                             
00004a6d  remove                                 
00004a6d  unlink                                 
00004ac1  write                                  
00004ae9  DisableInterrupts                      
00004aef  EnableInterrupts                       
00004af5  StartCritical                          
00004aff  EndCritical                            
00004b07  WaitForInterrupt                       
00004b29  strcmp                                 
00004b41  strchr                                 
00004b57  strcpy                                 
00004b6b  strlen                                 
00004b7f  __TI_decompress_none                   
00004b8d  Reset_Handler                          
00004b99  ADC14_IRQHandler                       
00004b99  AES256_IRQHandler                      
00004b99  BusFault_Handler                       
00004b99  COMP_E0_IRQHandler                     
00004b99  COMP_E1_IRQHandler                     
00004b99  CS_IRQHandler                          
00004b99  DMA_ERR_IRQHandler                     
00004b99  DMA_INT0_IRQHandler                    
00004b99  DMA_INT1_IRQHandler                    
00004b99  DMA_INT2_IRQHandler                    
00004b99  DMA_INT3_IRQHandler                    
00004b99  DebugMon_Handler                       
00004b99  Default_Handler                        
00004b99  EUSCIA0_IRQHandler                     
00004b99  EUSCIA1_IRQHandler                     
00004b99  EUSCIA2_IRQHandler                     
00004b99  EUSCIA3_IRQHandler                     
00004b99  EUSCIB0_IRQHandler                     
00004b99  EUSCIB1_IRQHandler                     
00004b99  EUSCIB2_IRQHandler                     
00004b99  EUSCIB3_IRQHandler                     
00004b99  FLCTL_IRQHandler                       
00004b99  FPU_IRQHandler                         
00004b99  HardFault_Handler                      
00004b99  MemManage_Handler                      
00004b99  NMI_Handler                            
00004b99  PCM_IRQHandler                         
00004b99  PORT1_IRQHandler                       
00004b99  PORT2_IRQHandler                       
00004b99  PORT3_IRQHandler                       
00004b99  PORT4_IRQHandler                       
00004b99  PORT5_IRQHandler                       
00004b99  PORT6_IRQHandler                       
00004b99  PSS_IRQHandler                         
00004b99  PendSV_Handler                         
00004b99  RTC_C_IRQHandler                       
00004b99  SVC_Handler                            
00004b99  T32_INT2_IRQHandler                    
00004b99  T32_INTC_IRQHandler                    
00004b99  TA0_0_IRQHandler                       
00004b99  TA0_N_IRQHandler                       
00004b99  TA1_N_IRQHandler                       
00004b99  TA2_0_IRQHandler                       
00004b99  TA2_N_IRQHandler                       
00004b99  UsageFault_Handler                     
00004b99  WDT_A_IRQHandler                       
00004b9b  __TI_zero_init                         
00004ba7  malloc                                 
00004baf  _system_pre_init                       
00004bb3  C$$EXIT                                
00004bb3  abort                                  
00004d98  Mask                                   
00004db8  Weight                                 
00004dd8  Masks                                  
00004e70  __TI_Handler_Table_Base                
00004e7c  __TI_Handler_Table_Limit               
00004e88  __TI_CINIT_Base                        
00004e98  __TI_CINIT_Limit                       
20000000  __start___llvm_prf_cnts                
20000000  __stop___llvm_prf_cnts                 
20000000  x                                      
20001000  x2                                     
20002000  x3                                     
20003000  Screen                                 
200031f8  __CIOBUF_                              
20003318  __TI_tmpnams                           
200033b8  LeftTach                               
200033cc  RightTach                              
200033e0  Messageb                               
200033e8  parmbuf                                
200033f0  ADCflag                                
200033f4  ActualSpeedL                           
200033f8  ActualSpeedR                           
200033fc  Center                                 
20003400  ControllerFlag                         
20003404  Error                                  
20003408  ErrorL                                 
2000340c  ErrorR                                 
20003410  I1                                     
20003414  LPFSum                                 
20003418  LPFSum2                                
2000341c  LPFSum3                                
20003420  Left                                   
20003424  LeftSteps                              
20003428  Messageindexb                          
2000342c  PeriodicTask2                          
20003430  PosError                               
20003434  Position                               
20003438  PrevErrorL                             
2000343c  PrevErrorR                             
20003440  Pt                                     
20003444  Pt2                                    
20003448  Pt3                                    
2000344c  Right                                  
20003450  RightSteps                             
20003454  Size                                   
20003458  Time                                   
2000345c  TimerA1Task                            
20003460  UL                                     
20003464  UR                                     
20003468  nc                                     
2000346c  nl                                     
20003470  nr                                     
20003474  u1                                     
20003478  u2                                     
2000347c  u3                                     
20003480  Tachometer_FirstLeftTime               
20003482  Tachometer_FirstRightTime              
20003484  Tachometer_SecondLeftTime              
20003486  Tachometer_SecondRightTime             
20003488  LeftDir                                
20003489  LineData                               
2000348a  LogicData                              
2000348b  RightDir                               
20003490  _sys_memory                            
20003890  _ftable                                
20003980  _device                                
200039f8  _stream                                
20003a48  Mode                                   
20003a4c  Ka                                     
20003a50  Kb                                     
20003a54  i                                      
20003a58  SetPoint                               
20003a5c  Kp2                                    
20003a60  Kp3                                    
20003a64  change                                 
20003a68  ClockFrequency                         
20003a6c  Prewait                                
20003a70  CPMwait                                
20003a74  Postwait                               
20003a78  IFlags                                 
20003a7c  Crystalstable                          
20003a80  __TI_ft_end                            
20003a84  __aeabi_stdin                          
20003a88  __aeabi_stdout                         
20003a8c  __aeabi_stderr                         
20003a90  __TI_cleanup_ptr                       
20003a94  __TI_dtors_ptr                         
20003a98  __TI_enable_exit_profile_output        
20003a9c  TExaS_ScopeErrLostData                 
20003aa0  TExaS_ScopeErrConflict                 
20003aa4  TExaS_ScopeWrnReconfig                 
20003aa8  Tachometer_RightSteps                  
20003aac  Tachometer_LeftSteps                   
20003ab0  Tachometer_RightDir                    
20003ab1  Tachometer_LeftDir                     
20003ab4  _lock                                  
20003ab8  _unlock                                
20003ac4  CaptureTask0                           
20003ac8  CaptureTask2                           
20003ad8  SystemCoreClock                        
2000fe00  __stack                                
20010000  __STACK_END                            
4000480c  WDTCTL_SYM                             
ffffffff  __TI_pprof_out_hndl                    
ffffffff  __TI_prof_data_size                    
ffffffff  __TI_prof_data_start                   
ffffffff  __binit__                              
ffffffff  __c_args__                             
ffffffff  binit                                  
UNDEFED   __mpu_init                             
UNDEFED   _system_post_cinit                     

[413 symbols]
